{
  "_format": "hh-sol-artifact-1",
  "contractName": "Pool",
  "sourceName": "contracts/Pool/Pool.sol",
  "abi": [
    {
      "anonymous": false,
      "inputs": [
        {
          "indexed": false,
          "internalType": "uint256",
          "name": "amount",
          "type": "uint256"
        }
      ],
      "name": "AmountBorrowed",
      "type": "event"
    },
    {
      "anonymous": false,
      "inputs": [
        {
          "indexed": false,
          "internalType": "address",
          "name": "borrower",
          "type": "address"
        },
        {
          "indexed": false,
          "internalType": "uint256",
          "name": "amount",
          "type": "uint256"
        },
        {
          "indexed": false,
          "internalType": "uint256",
          "name": "sharesReceived",
          "type": "uint256"
        }
      ],
      "name": "CollateralAdded",
      "type": "event"
    },
    {
      "anonymous": false,
      "inputs": [
        {
          "indexed": false,
          "internalType": "address",
          "name": "borrower",
          "type": "address"
        },
        {
          "indexed": false,
          "internalType": "uint256",
          "name": "amount",
          "type": "uint256"
        }
      ],
      "name": "CollateralWithdrawn",
      "type": "event"
    },
    {
      "anonymous": false,
      "inputs": [
        {
          "indexed": false,
          "internalType": "address",
          "name": "liquidator",
          "type": "address"
        },
        {
          "indexed": false,
          "internalType": "address",
          "name": "lender",
          "type": "address"
        },
        {
          "indexed": false,
          "internalType": "uint256",
          "name": "_tokenReceived",
          "type": "uint256"
        }
      ],
      "name": "LenderLiquidated",
      "type": "event"
    },
    {
      "anonymous": false,
      "inputs": [
        {
          "indexed": false,
          "internalType": "uint256",
          "name": "amountSupplied",
          "type": "uint256"
        },
        {
          "indexed": false,
          "internalType": "address",
          "name": "lenderAddress",
          "type": "address"
        }
      ],
      "name": "LiquiditySupplied",
      "type": "event"
    },
    {
      "anonymous": false,
      "inputs": [
        {
          "indexed": false,
          "internalType": "uint256",
          "name": "amount",
          "type": "uint256"
        },
        {
          "indexed": false,
          "internalType": "address",
          "name": "lenderAddress",
          "type": "address"
        }
      ],
      "name": "LiquidityWithdrawn",
      "type": "event"
    },
    {
      "anonymous": false,
      "inputs": [
        {
          "indexed": false,
          "internalType": "address",
          "name": "borrower",
          "type": "address"
        },
        {
          "indexed": false,
          "internalType": "address",
          "name": "lender",
          "type": "address"
        },
        {
          "indexed": false,
          "internalType": "uint256",
          "name": "amount",
          "type": "uint256"
        },
        {
          "indexed": false,
          "internalType": "uint256",
          "name": "sharesReceived",
          "type": "uint256"
        }
      ],
      "name": "MarginCallCollateralAdded",
      "type": "event"
    },
    {
      "anonymous": false,
      "inputs": [
        {
          "indexed": false,
          "internalType": "address",
          "name": "lenderAddress",
          "type": "address"
        }
      ],
      "name": "MarginCalled",
      "type": "event"
    },
    {
      "anonymous": false,
      "inputs": [],
      "name": "OpenBorrowPoolCancelled",
      "type": "event"
    },
    {
      "anonymous": false,
      "inputs": [],
      "name": "OpenBorrowPoolClosed",
      "type": "event"
    },
    {
      "anonymous": false,
      "inputs": [],
      "name": "OpenBorrowPoolTerminated",
      "type": "event"
    },
    {
      "anonymous": false,
      "inputs": [
        {
          "indexed": false,
          "internalType": "address",
          "name": "liquidator",
          "type": "address"
        }
      ],
      "name": "PoolLiquidated",
      "type": "event"
    },
    {
      "inputs": [
        {
          "internalType": "address",
          "name": "_lender",
          "type": "address"
        },
        {
          "internalType": "uint256",
          "name": "_amount",
          "type": "uint256"
        },
        {
          "internalType": "bool",
          "name": "_transferFromSavingsAccount",
          "type": "bool"
        }
      ],
      "name": "addCollateralInMarginCall",
      "outputs": [],
      "stateMutability": "payable",
      "type": "function"
    },
    {
      "inputs": [
        {
          "internalType": "address",
          "name": "_from",
          "type": "address"
        },
        {
          "internalType": "address",
          "name": "_to",
          "type": "address"
        },
        {
          "internalType": "uint256",
          "name": "_amount",
          "type": "uint256"
        }
      ],
      "name": "beforeTransfer",
      "outputs": [],
      "stateMutability": "nonpayable",
      "type": "function"
    },
    {
      "inputs": [],
      "name": "borrower",
      "outputs": [
        {
          "internalType": "address",
          "name": "",
          "type": "address"
        }
      ],
      "stateMutability": "view",
      "type": "function"
    },
    {
      "inputs": [
        {
          "internalType": "uint256",
          "name": "_balance",
          "type": "uint256"
        },
        {
          "internalType": "uint256",
          "name": "_liquidityShares",
          "type": "uint256"
        }
      ],
      "name": "calculateCollateralRatio",
      "outputs": [
        {
          "internalType": "uint256",
          "name": "_ratio",
          "type": "uint256"
        }
      ],
      "stateMutability": "nonpayable",
      "type": "function"
    },
    {
      "inputs": [],
      "name": "calculateCurrentPeriod",
      "outputs": [
        {
          "internalType": "uint256",
          "name": "",
          "type": "uint256"
        }
      ],
      "stateMutability": "view",
      "type": "function"
    },
    {
      "inputs": [],
      "name": "cancelPool",
      "outputs": [],
      "stateMutability": "nonpayable",
      "type": "function"
    },
    {
      "inputs": [],
      "name": "closeLoan",
      "outputs": [],
      "stateMutability": "payable",
      "type": "function"
    },
    {
      "inputs": [
        {
          "internalType": "uint256",
          "name": "_totalCollateralTokens",
          "type": "uint256"
        },
        {
          "internalType": "address",
          "name": "_poolFactory",
          "type": "address"
        },
        {
          "internalType": "uint256",
          "name": "_fraction",
          "type": "uint256"
        }
      ],
      "name": "correspondingBorrowTokens",
      "outputs": [
        {
          "internalType": "uint256",
          "name": "",
          "type": "uint256"
        }
      ],
      "stateMutability": "view",
      "type": "function"
    },
    {
      "inputs": [
        {
          "internalType": "uint256",
          "name": "_amount",
          "type": "uint256"
        },
        {
          "internalType": "bool",
          "name": "_transferFromSavingsAccount",
          "type": "bool"
        }
      ],
      "name": "depositCollateral",
      "outputs": [],
      "stateMutability": "payable",
      "type": "function"
    },
    {
      "inputs": [
        {
          "internalType": "address",
          "name": "_lender",
          "type": "address"
        }
      ],
      "name": "getBalanceDetails",
      "outputs": [
        {
          "internalType": "uint256",
          "name": "",
          "type": "uint256"
        },
        {
          "internalType": "uint256",
          "name": "",
          "type": "uint256"
        }
      ],
      "stateMutability": "view",
      "type": "function"
    },
    {
      "inputs": [
        {
          "internalType": "address",
          "name": "_lender",
          "type": "address"
        }
      ],
      "name": "getCurrentCollateralRatio",
      "outputs": [
        {
          "internalType": "uint256",
          "name": "_ratio",
          "type": "uint256"
        }
      ],
      "stateMutability": "nonpayable",
      "type": "function"
    },
    {
      "inputs": [],
      "name": "getCurrentCollateralRatio",
      "outputs": [
        {
          "internalType": "uint256",
          "name": "_ratio",
          "type": "uint256"
        }
      ],
      "stateMutability": "nonpayable",
      "type": "function"
    },
    {
      "inputs": [
        {
          "internalType": "address",
          "name": "_source",
          "type": "address"
        },
        {
          "internalType": "address",
          "name": "_target",
          "type": "address"
        },
        {
          "internalType": "uint256",
          "name": "_amount",
          "type": "uint256"
        }
      ],
      "name": "getEquivalentTokens",
      "outputs": [
        {
          "internalType": "uint256",
          "name": "",
          "type": "uint256"
        }
      ],
      "stateMutability": "view",
      "type": "function"
    },
    {
      "inputs": [],
      "name": "getLoanStatus",
      "outputs": [
        {
          "internalType": "uint256",
          "name": "",
          "type": "uint256"
        }
      ],
      "stateMutability": "view",
      "type": "function"
    },
    {
      "inputs": [
        {
          "internalType": "address",
          "name": "_lender",
          "type": "address"
        }
      ],
      "name": "getMarginCallEndTime",
      "outputs": [
        {
          "internalType": "uint256",
          "name": "",
          "type": "uint256"
        }
      ],
      "stateMutability": "view",
      "type": "function"
    },
    {
      "inputs": [],
      "name": "getTotalSupply",
      "outputs": [
        {
          "internalType": "uint256",
          "name": "",
          "type": "uint256"
        }
      ],
      "stateMutability": "view",
      "type": "function"
    },
    {
      "inputs": [
        {
          "internalType": "uint256",
          "name": "_borrowAmountRequested",
          "type": "uint256"
        },
        {
          "internalType": "uint256",
          "name": "_minborrowAmount",
          "type": "uint256"
        },
        {
          "internalType": "address",
          "name": "_borrower",
          "type": "address"
        },
        {
          "internalType": "address",
          "name": "_borrowAsset",
          "type": "address"
        },
        {
          "internalType": "address",
          "name": "_collateralAsset",
          "type": "address"
        },
        {
          "internalType": "uint256",
          "name": "_idealCollateralRatio",
          "type": "uint256"
        },
        {
          "internalType": "uint256",
          "name": "_borrowRate",
          "type": "uint256"
        },
        {
          "internalType": "uint256",
          "name": "_repaymentInterval",
          "type": "uint256"
        },
        {
          "internalType": "uint256",
          "name": "_noOfRepaymentIntervals",
          "type": "uint256"
        },
        {
          "internalType": "address",
          "name": "_poolSavingsStrategy",
          "type": "address"
        },
        {
          "internalType": "uint256",
          "name": "_collateralAmount",
          "type": "uint256"
        },
        {
          "internalType": "bool",
          "name": "_transferFromSavingsAccount",
          "type": "bool"
        },
        {
          "internalType": "uint256",
          "name": "_loanWithdrawalDuration",
          "type": "uint256"
        },
        {
          "internalType": "uint256",
          "name": "_collectionPeriod",
          "type": "uint256"
        }
      ],
      "name": "initialize",
      "outputs": [],
      "stateMutability": "payable",
      "type": "function"
    },
    {
      "inputs": [
        {
          "internalType": "uint256",
          "name": "_balance",
          "type": "uint256"
        }
      ],
      "name": "interestPerPeriod",
      "outputs": [
        {
          "internalType": "uint256",
          "name": "",
          "type": "uint256"
        }
      ],
      "stateMutability": "view",
      "type": "function"
    },
    {
      "inputs": [
        {
          "internalType": "uint256",
          "name": "_principal",
          "type": "uint256"
        }
      ],
      "name": "interestPerSecond",
      "outputs": [
        {
          "internalType": "uint256",
          "name": "",
          "type": "uint256"
        }
      ],
      "stateMutability": "view",
      "type": "function"
    },
    {
      "inputs": [],
      "name": "interestTillNow",
      "outputs": [
        {
          "internalType": "uint256",
          "name": "",
          "type": "uint256"
        }
      ],
      "stateMutability": "view",
      "type": "function"
    },
    {
      "inputs": [
        {
          "internalType": "address",
          "name": "_lender",
          "type": "address"
        },
        {
          "internalType": "uint256",
          "name": "_amountLent",
          "type": "uint256"
        },
        {
          "internalType": "bool",
          "name": "_fromSavingsAccount",
          "type": "bool"
        }
      ],
      "name": "lend",
      "outputs": [],
      "stateMutability": "payable",
      "type": "function"
    },
    {
      "inputs": [
        {
          "internalType": "address",
          "name": "",
          "type": "address"
        }
      ],
      "name": "lenders",
      "outputs": [
        {
          "internalType": "uint256",
          "name": "principalWithdrawn",
          "type": "uint256"
        },
        {
          "internalType": "uint256",
          "name": "interestWithdrawn",
          "type": "uint256"
        },
        {
          "internalType": "uint256",
          "name": "lastVoteTime",
          "type": "uint256"
        },
        {
          "internalType": "uint256",
          "name": "marginCallEndTime",
          "type": "uint256"
        },
        {
          "internalType": "uint256",
          "name": "extraLiquidityShares",
          "type": "uint256"
        }
      ],
      "stateMutability": "view",
      "type": "function"
    },
    {
      "inputs": [
        {
          "internalType": "bool",
          "name": "_toSavingsAccount",
          "type": "bool"
        },
        {
          "internalType": "bool",
          "name": "_receiveLiquidityShare",
          "type": "bool"
        }
      ],
      "name": "liquidateCancelPenality",
      "outputs": [],
      "stateMutability": "nonpayable",
      "type": "function"
    },
    {
      "inputs": [
        {
          "internalType": "address",
          "name": "_lender",
          "type": "address"
        },
        {
          "internalType": "bool",
          "name": "_fromSavingsAccount",
          "type": "bool"
        },
        {
          "internalType": "bool",
          "name": "_toSavingsAccount",
          "type": "bool"
        },
        {
          "internalType": "bool",
          "name": "_recieveLiquidityShare",
          "type": "bool"
        }
      ],
      "name": "liquidateLender",
      "outputs": [],
      "stateMutability": "payable",
      "type": "function"
    },
    {
      "inputs": [
        {
          "internalType": "bool",
          "name": "_fromSavingsAccount",
          "type": "bool"
        },
        {
          "internalType": "bool",
          "name": "_toSavingsAccount",
          "type": "bool"
        },
        {
          "internalType": "bool",
          "name": "_recieveLiquidityShare",
          "type": "bool"
        }
      ],
      "name": "liquidatePool",
      "outputs": [],
      "stateMutability": "payable",
      "type": "function"
    },
    {
      "inputs": [],
      "name": "poolConstants",
      "outputs": [
        {
          "internalType": "address",
          "name": "borrower",
          "type": "address"
        },
        {
          "internalType": "uint256",
          "name": "borrowAmountRequested",
          "type": "uint256"
        },
        {
          "internalType": "uint256",
          "name": "minborrowAmount",
          "type": "uint256"
        },
        {
          "internalType": "uint256",
          "name": "loanStartTime",
          "type": "uint256"
        },
        {
          "internalType": "uint256",
          "name": "loanWithdrawalDeadline",
          "type": "uint256"
        },
        {
          "internalType": "address",
          "name": "borrowAsset",
          "type": "address"
        },
        {
          "internalType": "uint256",
          "name": "idealCollateralRatio",
          "type": "uint256"
        },
        {
          "internalType": "uint256",
          "name": "borrowRate",
          "type": "uint256"
        },
        {
          "internalType": "uint256",
          "name": "noOfRepaymentIntervals",
          "type": "uint256"
        },
        {
          "internalType": "uint256",
          "name": "repaymentInterval",
          "type": "uint256"
        },
        {
          "internalType": "address",
          "name": "collateralAsset",
          "type": "address"
        },
        {
          "internalType": "address",
          "name": "poolSavingsStrategy",
          "type": "address"
        }
      ],
      "stateMutability": "view",
      "type": "function"
    },
    {
      "inputs": [],
      "name": "poolToken",
      "outputs": [
        {
          "internalType": "contract IPoolToken",
          "name": "",
          "type": "address"
        }
      ],
      "stateMutability": "view",
      "type": "function"
    },
    {
      "inputs": [],
      "name": "poolVars",
      "outputs": [
        {
          "internalType": "uint256",
          "name": "baseLiquidityShares",
          "type": "uint256"
        },
        {
          "internalType": "uint256",
          "name": "extraLiquidityShares",
          "type": "uint256"
        },
        {
          "internalType": "enum Pool.LoanStatus",
          "name": "loanStatus",
          "type": "uint8"
        },
        {
          "internalType": "uint256",
          "name": "penalityLiquidityAmount",
          "type": "uint256"
        }
      ],
      "stateMutability": "view",
      "type": "function"
    },
    {
      "inputs": [],
      "name": "requestMarginCall",
      "outputs": [],
      "stateMutability": "nonpayable",
      "type": "function"
    },
    {
      "inputs": [
        {
          "internalType": "address",
          "name": "_poolToken",
          "type": "address"
        }
      ],
      "name": "setPoolToken",
      "outputs": [],
      "stateMutability": "nonpayable",
      "type": "function"
    },
    {
      "inputs": [],
      "name": "terminateOpenBorrowPool",
      "outputs": [],
      "stateMutability": "nonpayable",
      "type": "function"
    },
    {
      "inputs": [],
      "name": "withdrawBorrowedAmount",
      "outputs": [],
      "stateMutability": "nonpayable",
      "type": "function"
    },
    {
      "inputs": [],
      "name": "withdrawLiquidity",
      "outputs": [],
      "stateMutability": "nonpayable",
      "type": "function"
    },
    {
      "inputs": [],
      "name": "withdrawRepayment",
      "outputs": [],
      "stateMutability": "nonpayable",
      "type": "function"
    },
    {
      "stateMutability": "payable",
      "type": "receive"
    }
  ],
  "bytecode": "0x608060405234801561001057600080fd5b506001805561531f806100246000396000f3fe6080604052600436106101fd5760003560e01c80637df1f1b91161010d578063bda9e06b116100a0578063d2b93bfd1161006f578063d2b93bfd14610844578063d820d4c914610869578063daf5539e14610893578063e3bd9cb6146108c6578063e70d72d714610904576102bf565b8063bda9e06b146107d1578063c145fe69146107e6578063c4e41b221461081a578063cbdf382c1461082f576102bf565b8063969dec34116100dc578063969dec3414610710578063acc1ab1314610725578063b2c092331461073a578063bb1a195f14610786576102bf565b80637df1f1b9146106815780637ea382c1146106b25780637ee0682b146106c757806395f3f456146106fb576102bf565b806333ce01fd116101905780636886c8141161015f5780636886c8141461054757806372954480146105cb5780637320fc291461060a5780637489b4511461063d5780637729886f14610652576102bf565b806333ce01fd1461048c5780633fe32520146104bf57806346b55fbb146104d45780635afaa80f14610504576102bf565b8063272edaf2116101cc578063272edaf21461034b578063275ac252146103d057806328fd10d7146103fa5780632dea621414610458576102bf565b80630fc72889146102c45780631b55b2a8146102eb5780631ffb811f14610300578063232fa73314610343576102bf565b366102bf57600260009054906101000a90046001600160a01b03166001600160a01b031663ecced6236040518163ffffffff1660e01b815260040160206040518083038186803b15801561025057600080fd5b505afa158015610264573d6000803e3d6000fd5b505050506040513d602081101561027a57600080fd5b50516001600160a01b031633146102bd576040805162461bcd60e51b8152602060048201526002602482015261333560f01b604482015290519081900360640190fd5b005b600080fd5b3480156102d057600080fd5b506102d9610919565b60408051918252519081900360200190f35b3480156102f757600080fd5b506102bd610959565b34801561030c57600080fd5b506102bd6004803603606081101561032357600080fd5b506001600160a01b03813581169160208101359091169060400135610b79565b6102bd610e29565b6102bd60048036036101c081101561036257600080fd5b508035906020810135906001600160a01b0360408201358116916060810135821691608082013581169160a08101359160c08201359160e081013591610100820135916101208101359091169061014081013590610160810135151590610180810135906101a001356110f9565b3480156103dc57600080fd5b506102d9600480360360208110156103f357600080fd5b5035611257565b34801561040657600080fd5b5061042d6004803603602081101561041d57600080fd5b50356001600160a01b0316611281565b6040805195865260208601949094528484019290925260608401526080830152519081900360a00190f35b6102bd6004803603606081101561046e57600080fd5b506001600160a01b03813516906020810135906040013515156112b1565b34801561049857600080fd5b506102bd600480360360208110156104af57600080fd5b50356001600160a01b03166114f5565b3480156104cb57600080fd5b506102d961155a565b3480156104e057600080fd5b506102d9600480360360408110156104f757600080fd5b50803590602001356116e9565b34801561051057600080fd5b506102d96004803603606081101561052757600080fd5b506001600160a01b038135811691602081013590911690604001356117eb565b34801561055357600080fd5b5061055c61190c565b604080516001600160a01b039d8e168152602081019c909c528b81019a909a5260608b019890985260808a019690965293891660a089015260c088019290925260e087015261010086015261012085015284166101408401529092166101608201529051908190036101800190f35b3480156105d757600080fd5b506102d9600480360360608110156105ee57600080fd5b508035906001600160a01b036020820135169060400135611948565b34801561061657600080fd5b506102d96004803603602081101561062d57600080fd5b50356001600160a01b0316611a7b565b34801561064957600080fd5b506102bd611b36565b6102bd6004803603606081101561066857600080fd5b5080351515906020810135151590604001351515611c3f565b34801561068d57600080fd5b50610696611f9b565b604080516001600160a01b039092168252519081900360200190f35b3480156106be57600080fd5b506102bd611faa565b3480156106d357600080fd5b506102bd600480360360408110156106ea57600080fd5b508035151590602001351515612485565b34801561070757600080fd5b506102bd61267a565b34801561071c57600080fd5b506102bd612bc9565b34801561073157600080fd5b506102d9612dfa565b34801561074657600080fd5b5061076d6004803603602081101561075d57600080fd5b50356001600160a01b0316612e13565b6040805192835260208301919091528051918290030190f35b34801561079257600080fd5b5061079b612f08565b604051808581526020018481526020018360058111156107b757fe5b815260200182815260200194505050505060405180910390f35b3480156107dd57600080fd5b506102bd612f1d565b6102bd600480360360608110156107fc57600080fd5b506001600160a01b03813516906020810135906040013515156131e1565b34801561082657600080fd5b506102d96133f4565b34801561083b57600080fd5b5061069661346a565b6102bd6004803603604081101561085a57600080fd5b50803590602001351515613479565b34801561087557600080fd5b506102d96004803603602081101561088c57600080fd5b50356134be565b34801561089f57600080fd5b506102d9600480360360208110156108b657600080fd5b50356001600160a01b03166134d8565b6102bd600480360360808110156108dc57600080fd5b506001600160a01b038135169060208101351515906040810135151590606001351515613604565b34801561091057600080fd5b506102d961382a565b600e546008546040805180820190915260028152610ccd60f21b602082015260009283926109529261094c9142916138c3565b9061395a565b9150505b90565b60135460ff16600081600581111561096d57fe5b146109a5576040805162461bcd60e51b815260206004820152600360248201526243503160e81b604482015290519081900360640190fd5b6008544281108015610a285750600754600354604080516318160ddd60e01b815290516001600160a01b03909216916318160ddd91600480820192602092909190829003018186803b1580156109fa57600080fd5b505afa158015610a0e573d6000803e3d6000fd5b505050506040513d6020811015610a2457600080fd5b5051105b15610a3e57610a3760006139c1565b5050610b77565b600954421015610a8d576005546001600160a01b03163314610a8d576040805162461bcd60e51b815260206004820152600360248201526221a81960e91b604482015290519081900360640190fd5b601154600e5442831015610ab257610aaf610aa84285613b45565b8290613ba2565b90505b60025460408051636687e7b760e01b815290516000926001600160a01b031691636687e7b7916004808301926020929190829003018186803b158015610af757600080fd5b505afa158015610b0b573d6000803e3d6000fd5b505050506040513d6020811015610b2157600080fd5b5051600c54909150600090610b659068327cb2734119d3b7a9601e1b9061094c906301e133809082908890610b5f90869084908d9084908d90613bfc565b90613bfc565b9050610b70816139c1565b5050505050505b565b60026001541415610bbf576040805162461bcd60e51b815260206004820152601f60248201526000805160206151ed833981519152604482015290519081900360640190fd5b60026001556003546001600160a01b03163314610bdb57600080fd5b610be483611a7b565b15610c1b576040805162461bcd60e51b8152602060048201526002602482015261062760f31b604482015290519081900360640190fd5b610c2482611a7b565b15610c5b576040805162461bcd60e51b8152602060048201526002602482015261313960f01b604482015290519081900360640190fd5b610c6483613c55565b610c6d82613c55565b6001600160a01b0383166000908152600460208190526040909120015480610c955750610e20565b600354604080516370a0823160e01b81526001600160a01b0387811660048301529151849392909216916370a0823191602480820192602092909190829003018186803b158015610ce557600080fd5b505afa158015610cf9573d6000803e3d6000fd5b505050506040513d6020811015610d0f57600080fd5b50518314610da257600354604080516370a0823160e01b81526001600160a01b0388811660048301529151610d9f9392909216916370a0823191602480820192602092909190829003018186803b158015610d6957600080fd5b505afa158015610d7d573d6000803e3d6000fd5b505050506040513d6020811015610d9357600080fd5b505161094c8585613bfc565b90505b6001600160a01b03851660009081526004602081905260409091200154610dc99082613b45565b6001600160a01b0380871660009081526004602081905260408083208201949094559187168152919091200154610e009082613ba2565b6001600160a01b0385166000908152600460208190526040909120015550505b50506001805550565b60026001541415610e6f576040805162461bcd60e51b815260206004820152601f60248201526000805160206151ed833981519152604482015290519081900360640190fd5b60026001819055546040805163171e108560e01b815290516001600160a01b039092169163171e108591600480820192602092909190829003018186803b158015610eb957600080fd5b505afa158015610ecd573d6000803e3d6000fd5b505050506040513d6020811015610ee357600080fd5b50516001600160a01b03163314610f26576040805162461bcd60e51b8152602060048201526002602482015261323560f01b604482015290519081900360640190fd5b600160135460ff166005811115610f3957fe5b14610f70576040805162461bcd60e51b8152602060048201526002602482015261191960f11b604482015290519081900360640190fd5b6013805460ff1916600290811790915554604080516302d5537b60e41b815290516001600160a01b0390921691632d5537b091600480820192602092909190829003018186803b158015610fc357600080fd5b505afa158015610fd7573d6000803e3d6000fd5b505050506040513d6020811015610fed57600080fd5b5051604080516311f2df1b60e21b815290516001600160a01b03909216916347cb7c6c9160048082019260009290919082900301818387803b15801561103257600080fd5b505af1158015611046573d6000803e3d6000fd5b505060055461106292506001600160a01b031690506000613cc9565b600360009054906101000a90046001600160a01b03166001600160a01b0316638456cb596040518163ffffffff1660e01b8152600401600060405180830381600087803b1580156110b257600080fd5b505af11580156110c6573d6000803e3d6000fd5b50506040517f16806a4b81acb154f2a096d5f8d970f04bd4546e2a070933d28b8212cfc9ddce925060009150a160018055565b600054610100900460ff16806111125750611112613e7a565b80611120575060005460ff16155b61115b5760405162461bcd60e51b815260040180806020018281038252602e81526020018061523b602e913960400191505060405180910390fd5b600054610100900460ff16158015611186576000805460ff1961ff0019909116610100171660011790555b60028054336001600160a01b031991821617909155600a805482166001600160a01b038f811691909117909155600b8c9055600f805483168e83161790556010805490921690881617905560068f90556111e18d8686613e8b565b600580546001600160a01b0319166001600160a01b038f1617905560078e9055600c899055600d879055600e88905561121a4283613ba2565b6008556112318361122b4285613ba2565b90613ba2565b6009558015611246576000805461ff00191690555b505050505050505050505050505050565b60008061127a6301e1338061094c60056007015486613bfc90919063ffffffff16565b9392505050565b60046020819052600091825260409091208054600182015460028301546003840154939094015491939092909185565b600260015414156112f7576040805162461bcd60e51b815260206004820152601f60248201526000805160206151ed833981519152604482015290519081900360640190fd5b6002600155600060135460ff16600581111561130f57fe5b14611346576040805162461bcd60e51b8152602060048201526002602482015261313560f01b604482015290519081900360640190fd5b6008544210611381576040805162461bcd60e51b8152602060048201526002602482015261189b60f11b604482015290519081900360640190fd5b600654600354604080516318160ddd60e01b815290518593926000926001600160a01b03909116916318160ddd91600480820192602092909190829003018186803b1580156113cf57600080fd5b505afa1580156113e3573d6000803e3d6000fd5b505050506040513d60208110156113f957600080fd5b50519050816114088683613ba2565b111561141b576114188282613b45565b92505b600a546001600160a01b03166114378560008387823330613f1b565b50600354604080516340c10f1960e01b81526001600160a01b038a8116600483015260248201889052915191909216916340c10f1991604480830192600092919082900301818387803b15801561148d57600080fd5b505af11580156114a1573d6000803e3d6000fd5b5050604080518781526001600160a01b038b16602082015281517ff09dbebdc018e2d81469b76b813a178bbc38dde6fd1056134b68f291a58802e29450908190039091019150a15050600180555050505050565b6002546001600160a01b03163314611538576040805162461bcd60e51b81526020600482015260016024820152601b60f91b604482015290519081900360640190fd5b600380546001600160a01b0319166001600160a01b0392909216919091179055565b6002546040805163171e108560e01b815290516000926001600160a01b03169183918291849163171e108591600480820192602092909190829003018186803b1580156115a657600080fd5b505afa1580156115ba573d6000803e3d6000fd5b505050506040513d60208110156115d057600080fd5b50516040805160016216f02b60e01b0319815230600482015281516001600160a01b039093169263ffe90fd592602480840193919291829003018186803b15801561161a57600080fd5b505afa15801561162e573d6000803e3d6000fd5b505050506040513d604081101561164457600080fd5b5080516020909101519092509050600061166a4268327cb2734119d3b7a9601e1b613bfc565b6008549091506000906116949061168d9068327cb2734119d3b7a9601e1b613bfc565b8390613b45565b90508381116116ab57600095505050505050610956565b60006116de789f4f2726179a224501d762422c946590d9100000000000000061094c6116d78589613b45565b8790613bfc565b965050505050505090565b6000806116f461155a565b600f546010549192506001600160a01b0390811691166000811561179a57816001600160a01b03166359846d2987856040518363ffffffff1660e01b815260040180838152602001826001600160a01b0316815260200192505050602060405180830381600087803b15801561176957600080fd5b505af115801561177d573d6000803e3d6000fd5b505050506040513d602081101561179357600080fd5b505161179c565b855b600a549091506000906117ba9085906001600160a01b0316846117eb565b90506117df6117c98987613ba2565b61094c8368327cb2734119d3b7a9601e1b613bfc565b98975050505050505050565b6000806000600260009054906101000a90046001600160a01b03166001600160a01b0316632630c12f6040518163ffffffff1660e01b815260040160206040518083038186803b15801561183e57600080fd5b505afa158015611852573d6000803e3d6000fd5b505050506040513d602081101561186857600080fd5b5051604080516310603c1160e01b81526001600160a01b038981166004830152888116602483015282519316926310603c1192604480840193919291829003018186803b1580156118b857600080fd5b505afa1580156118cc573d6000803e3d6000fd5b505050506040513d60408110156118e257600080fd5b5080516020909101519092509050611902600a82900a61094c8685613bfc565b9695505050505050565b600554600654600754600854600954600a54600b54600c54600d54600e54600f546010546001600160a01b039b8c169b9687169691821691168c565b600080839050600080826001600160a01b0316632630c12f6040518163ffffffff1660e01b815260040160206040518083038186803b15801561198a57600080fd5b505afa15801561199e573d6000803e3d6000fd5b505050506040513d60208110156119b457600080fd5b5051600f54600a54604080516310603c1160e01b81526001600160a01b0393841660048201529183166024830152805192909316926310603c1192604480840193829003018186803b158015611a0957600080fd5b505afa158015611a1d573d6000803e3d6000fd5b505050506040513d6040811015611a3357600080fd5b5080516020909101519092509050611a7068327cb2734119d3b7a9601e1b61094c611a5e8289613b45565b610b5f600a86900a61094c8d89613bfc565b979650505050505050565b600080600260009054906101000a90046001600160a01b03166001600160a01b0316639b9842c16040518163ffffffff1660e01b815260040160206040518083038186803b158015611acc57600080fd5b505afa158015611ae0573d6000803e3d6000fd5b505050506040513d6020811015611af657600080fd5b50516001600160a01b038416600090815260046020526040902060030154909150611b25610aa8836002613bfc565b42111561127a575060009392505050565b600354604080516370a0823160e01b81523360048201819052915191926001600160a01b0316916370a0823191602480820192602092909190829003018186803b158015611b8357600080fd5b505afa158015611b97573d6000803e3d6000fd5b505050506040513d6020811015611bad57600080fd5b5051611be4576040805162461bcd60e51b81526020600482015260016024820152601960f91b604482015290519081900360640190fd5b60026001541415611c2a576040805162461bcd60e51b815260206004820152601f60248201526000805160206151ed833981519152604482015290519081900360640190fd5b6002600155611c3833613c55565b5060018055565b60026001541415611c85576040805162461bcd60e51b815260206004820152601f60248201526000805160206151ed833981519152604482015290519081900360640190fd5b60026001819055601354905460ff909116906001600160a01b03166004826005811115611cae57fe5b14158015611d915750806001600160a01b031663171e10856040518163ffffffff1660e01b815260040160206040518083038186803b158015611cf057600080fd5b505afa158015611d04573d6000803e3d6000fd5b505050506040513d6020811015611d1a57600080fd5b505160408051633bada68960e21b815230600482015290516001600160a01b039092169163eeb69a2491602480820192602092909190829003018186803b158015611d6457600080fd5b505afa158015611d78573d6000803e3d6000fd5b505050506040513d6020811015611d8e57600080fd5b50515b15611da9576013805460ff1916600490811790915591505b6004826005811115611db757fe5b14611df35760405162461bcd60e51b81526004018080602001828103825260358152602001806151b86035913960400191505060405180910390fd5b600f54600a546012546011546001600160a01b039384169390921691600091611e1c9190613ba2565b6010549091506001600160a01b0316818115611eb857816001600160a01b03166359846d2984876040518363ffffffff1660e01b815260040180838152602001826001600160a01b0316815260200192505050602060405180830381600087803b158015611e8957600080fd5b505af1158015611e9d573d6000803e3d6000fd5b505050506040513d6020811015611eb357600080fd5b505190505b6000611f298288896001600160a01b031663acca944f6040518163ffffffff1660e01b815260040160206040518083038186803b158015611ef857600080fd5b505afa158015611f0c573d6000803e3d6000fd5b505050506040513d6020811015611f2257600080fd5b5051611948565b600060128190556011819055909150611f48908c908784823330613f1b565b50611f568a8a888686614026565b506040805133815290517fc54b2aa56ebf583bfce79c646ac5d4618f0e44bc6874bd07194673a5bd2626a09181900360200190a1505060018055505050505050505050565b6005546001600160a01b031690565b600354604080516370a0823160e01b81523360048201819052915191926001600160a01b0316916370a0823191602480820192602092909190829003018186803b158015611ff757600080fd5b505afa15801561200b573d6000803e3d6000fd5b505050506040513d602081101561202157600080fd5b5051612058576040805162461bcd60e51b81526020600482015260016024820152601960f91b604482015290519081900360640190fd5b6002600154141561209e576040805162461bcd60e51b815260206004820152601f60248201526000805160206151ed833981519152604482015290519081900360640190fd5b6002600181905560135460ff16908160058111156120b857fe5b14806120cf575060038160058111156120cd57fe5b145b806120e5575060048160058111156120e357fe5b145b806120fb575060058160058111156120f957fe5b145b612131576040805162461bcd60e51b81526020600482015260026024820152610c8d60f21b604482015290519081900360640190fd5b600354604080516370a0823160e01b815233600482015290516000926001600160a01b0316916370a08231916024808301926020929190829003018186803b15801561217c57600080fd5b505afa158015612190573d6000803e3d6000fd5b505050506040513d60208110156121a657600080fd5b505190508060048360058111156121b957fe5b14806121d0575060058360058111156121ce57fe5b145b156122ea57600a546000906001600160a01b03161561226757600a54604080516370a0823160e01b815230600482015290516001600160a01b03909216916370a0823191602480820192602092909190829003018186803b15801561223457600080fd5b505afa158015612248573d6000803e3d6000fd5b505050506040513d602081101561225e57600080fd5b5051905061226a565b50475b600354604080516318160ddd60e01b815290516122e6926001600160a01b0316916318160ddd916004808301926020929190829003018186803b1580156122b057600080fd5b505afa1580156122c4573d6000803e3d6000fd5b505050506040513d60208110156122da57600080fd5b505161094c8484613bfc565b9150505b60038360058111156122f857fe5b141561238f5761238c610aa8600360009054906101000a90046001600160a01b03166001600160a01b03166318160ddd6040518163ffffffff1660e01b815260040160206040518083038186803b15801561235257600080fd5b505afa158015612366573d6000803e3d6000fd5b505050506040513d602081101561237c57600080fd5b505160145461094c908590613bfc565b90505b3360009081526004602052604081205560028360058111156123ad57fe5b14156123bc576123bc33613c55565b60035460408051632770a7eb60e21b81523360048201526024810185905290516001600160a01b0390921691639dc29fac9160448082019260009290919082900301818387803b15801561240f57600080fd5b505af1158015612423573d6000803e3d6000fd5b5050600a5461244092506001600160a01b031690508230336140b5565b506040805182815233602082015281517f971f63643b6d0341cf9c1971238adc8625537ce1c41ba0a9dfcbd784832bd5f9929181900390910190a15050600180555050565b600260015414156124cb576040805162461bcd60e51b815260206004820152601f60248201526000805160206151ed833981519152604482015290519081900360640190fd5b6002600155600360135460ff1660058111156124e357fe5b1461250f576040805162461bcd60e51b8152602060048201526000602482015290519081900360640190fd5b6014541561253e576040805162461bcd60e51b8152602060048201526000602482015290519081900360640190fd5b600254601054600f546011546001600160a01b0393841693928316929091169082156125ea57826001600160a01b03166359846d2982846040518363ffffffff1660e01b815260040180838152602001826001600160a01b0316815260200192505050602060405180830381600087803b1580156125bb57600080fd5b505af11580156125cf573d6000803e3d6000fd5b505050506040513d60208110156125e557600080fd5b505190505b600061262a8286876001600160a01b031663acca944f6040518163ffffffff1660e01b815260040160206040518083038186803b158015611ef857600080fd5b6014819055600a5490915061264a906001600160a01b03168233306140b5565b50600f5460105461266c91899189916001600160a01b03908116911686614026565b505060018055505050505050565b60055433906001600160a01b031681146126bf576040805162461bcd60e51b81526020600482015260016024820152603160f81b604482015290519081900360640190fd5b60026001541415612705576040805162461bcd60e51b815260206004820152601f60248201526000805160206151ed833981519152604482015290519081900360640190fd5b6002600155601354600354604080516318160ddd60e01b8152905160ff909316926000926001600160a01b0316916318160ddd916004808301926020929190829003018186803b15801561275857600080fd5b505afa15801561276c573d6000803e3d6000fd5b505050506040513d602081101561278257600080fd5b50519050600082600581111561279457fe5b1480156127a2575060085442115b80156127af575060095442105b6127e5576040805162461bcd60e51b8152602060048201526002602482015261189960f11b604482015290519081900360640190fd5b600754811015612821576040805162461bcd60e51b8152602060048201526002602482015261313360f01b604482015290519081900360640190fd5b6013805460ff19166001179055600061283861382a565b600254600f5460408051626c78a760e71b81526001600160a01b03928316600482015290519394509116916128c491839163363c538091602480820192602092909190829003018186803b15801561288f57600080fd5b505afa1580156128a3573d6000803e3d6000fd5b505050506040513d60208110156128b957600080fd5b5051600b5490613b45565b8210156128fd576040805162461bcd60e51b81526020600482015260026024820152610c4d60f21b604482015290519081900360640190fd5b600d54600e546040805163171e108560e01b815290516001600160a01b0385169163171e1085916004808301926020929190829003018186803b15801561294357600080fd5b505afa158015612957573d6000803e3d6000fd5b505050506040513d602081101561296d57600080fd5b5051600c54600854600a5460408051632447e4a760e11b81526004810188905260248101879052604481019490945260648401929092526001600160a01b039081166084840152905192169163488fc94e9160a48082019260009290919082900301818387803b1580156129e057600080fd5b505af11580156129f4573d6000803e3d6000fd5b50505050826001600160a01b0316632d5537b06040518163ffffffff1660e01b815260040160206040518083038186803b158015612a3157600080fd5b505afa158015612a45573d6000803e3d6000fd5b505050506040513d6020811015612a5b57600080fd5b505160408051635ad3867560e11b81526004810184905290516001600160a01b039092169163b5a70cea9160248082019260009290919082900301818387803b158015612aa757600080fd5b505af1158015612abb573d6000803e3d6000fd5b5050600a5460408051637bad520760e01b815281516001600160a01b039384169550600094508493891692637bad52079260048082019391829003018186803b158015612b0757600080fd5b505afa158015612b1b573d6000803e3d6000fd5b505050506040513d6040811015612b3157600080fd5b50805160209091015190925090506000612b5b68327cb2734119d3b7a9601e1b61094c8b86613bfc565b60006009559050612b6e848230856140b5565b50612b8484612b7d8b84613b45565b30336140b5565b50604080518a815290517fd34aff353e8e4ad78ec390d5c4bd580941a8299db97e6c9b7a536ce2030d09899181900360200190a1505060018055505050505050505050565b600260009054906101000a90046001600160a01b03166001600160a01b0316638da5cb5b6040518163ffffffff1660e01b815260040160206040518083038186803b158015612c1757600080fd5b505afa158015612c2b573d6000803e3d6000fd5b505050506040513d6020811015612c4157600080fd5b50516001600160a01b03163314612c83576040805162461bcd60e51b81526020600482015260016024820152603360f81b604482015290519081900360640190fd5b612c8e336000613cc9565b600360009054906101000a90046001600160a01b03166001600160a01b0316638456cb596040518163ffffffff1660e01b8152600401600060405180830381600087803b158015612cde57600080fd5b505af1158015612cf2573d6000803e3d6000fd5b50506013805460ff191660051790555050600254604080516302d5537b60e41b815290516001600160a01b0390921691632d5537b091600480820192602092909190829003018186803b158015612d4857600080fd5b505afa158015612d5c573d6000803e3d6000fd5b505050506040513d6020811015612d7257600080fd5b5051604080516311f2df1b60e21b815290516001600160a01b03909216916347cb7c6c9160048082019260009290919082900301818387803b158015612db757600080fd5b505af1158015612dcb573d6000803e3d6000fd5b50506040517f63565abe08812999f78f5a975601697854790c627fc35ad638bcf130f3e537c6925060009150a1565b60135460009060ff166005811115612e0e57fe5b905090565b600354604080516370a0823160e01b81526001600160a01b03848116600483015291516000938493169182916370a0823191602480820192602092909190829003018186803b158015612e6557600080fd5b505afa158015612e79573d6000803e3d6000fd5b505050506040513d6020811015612e8f57600080fd5b5051604080516318160ddd60e01b815290516001600160a01b038416916318160ddd916004808301926020929190829003018186803b158015612ed157600080fd5b505afa158015612ee5573d6000803e3d6000fd5b505050506040513d6020811015612efb57600080fd5b5051909350915050915091565b60115460125460135460145460ff9091169084565b600354604080516370a0823160e01b81523360048201819052915191926001600160a01b0316916370a0823191602480820192602092909190829003018186803b158015612f6a57600080fd5b505afa158015612f7e573d6000803e3d6000fd5b505050506040513d6020811015612f9457600080fd5b5051612fcb576040805162461bcd60e51b81526020600482015260016024820152601960f91b604482015290519081900360640190fd5b600160135460ff166005811115612fde57fe5b14613014576040805162461bcd60e51b81526020600482015260016024820152600d60fa1b604482015290519081900360640190fd5b6002546001600160a01b031661302933611a7b565b15613064576040805162461bcd60e51b81526020600480830191909152602482015263524d433160e01b604482015290519081900360640190fd5b600b54600f5460408051626c78a760e71b81526001600160a01b03928316600482015290516130ea9285169163363c5380916024808301926020929190829003018186803b1580156130b557600080fd5b505afa1580156130c9573d6000803e3d6000fd5b505050506040513d60208110156130df57600080fd5b505161122b336134d8565b8111613122576040805162461bcd60e51b8152602060048201526002602482015261191b60f11b604482015290519081900360640190fd5b613191826001600160a01b0316639b9842c16040518163ffffffff1660e01b815260040160206040518083038186803b15801561315e57600080fd5b505afa158015613172573d6000803e3d6000fd5b505050506040513d602081101561318857600080fd5b50514290613ba2565b33600081815260046020908152604091829020600301939093558051918252517f5334a046b9fb8040bcaa4dd9a9ecbbe06e299568931f336e4aa6bbf51d511b80929181900390910190a1505050565b60026001541415613227576040805162461bcd60e51b815260206004820152601f60248201526000805160206151ed833981519152604482015290519081900360640190fd5b6002600190815560135460ff16600581111561323f57fe5b14613275576040805162461bcd60e51b81526020600482015260016024820152603960f81b604482015290519081900360640190fd5b4261327f84611a7b565b10156132b7576040805162461bcd60e51b8152602060048201526002602482015261031360f41b604482015290519081900360640190fd5b816132ee576040805162461bcd60e51b8152602060048201526002602482015261313160f01b604482015290519081900360640190fd5b600f546010546000916133169184916001916001600160a01b03918216918891163330613f1b565b6012549091506133269082613ba2565b6012556001600160a01b038416600090815260046020819052604090912001546133509082613ba2565b6001600160a01b03851660009081526004602081905260409091200155600b54613379856134d8565b1061339b576001600160a01b0384166000908152600460205260408120600301555b604080513381526001600160a01b03861660208201528082018590526060810183905290517f7745b8ee282b3bb1a0958b211eb3a34506deb988e5488e560a63b83ce03ba9d99181900360800190a15050600180555050565b600354604080516318160ddd60e01b815290516000926001600160a01b0316916318160ddd916004808301926020929190829003018186803b15801561343957600080fd5b505afa15801561344d573d6000803e3d6000fd5b505050506040513d602081101561346357600080fd5b5051905090565b6003546001600160a01b031681565b816134af576040805162461bcd60e51b81526020600482015260016024820152603760f81b604482015290519081900360640190fd5b6134ba3383836142f3565b5050565b60006134d2600560090154610b5f84611257565b92915050565b600354604080516370a0823160e01b81526001600160a01b0384811660048301529151600093849316916370a08231916024808301926020929190829003018186803b15801561352757600080fd5b505afa15801561353b573d6000803e3d6000fd5b505050506040513d602081101561355157600080fd5b50516001600160a01b03808516600090815260046020818152604080842083015460035482516318160ddd60e01b8152925197985094966135f096919561122b959216936318160ddd938084019391929190829003018186803b1580156135b757600080fd5b505afa1580156135cb573d6000803e3d6000fd5b505050506040513d60208110156135e157600080fd5b505160115461094c9087613bfc565b90506135fc82826116e9565b949350505050565b6002600154141561364a576040805162461bcd60e51b815260206004820152601f60248201526000805160206151ed833981519152604482015290519081900360640190fd5b6002600155613658846143cb565b6010546001600160a01b031660008061367087614614565b9092509050816001600160a01b0384161561370a57600f54604080516359846d2960e01b8152600481018690526001600160a01b0392831660248201529051918616916359846d29916044808201926020929091908290030181600087803b1580156136db57600080fd5b505af11580156136ef573d6000803e3d6000fd5b505050506040513d602081101561370557600080fd5b505190505b613715878983614767565b600f5460009061373390889088906001600160a01b03168886614026565b60035460408051632770a7eb60e21b81526001600160a01b038d81166004830152602482018890529151939450911691639dc29fac9160448082019260009290919082900301818387803b15801561378a57600080fd5b505af115801561379e573d6000803e3d6000fd5b5050506001600160a01b038a1660008181526004602081815260408084208481556001810185905560028101859055600381018590559092019290925580513381529182019290925280820184905290517f9b4fed4f3cd02b7624ed7521dce91b2f3aee138fc5c04d59f2f087e6b261a40d92509081900360600190a150506001805550505050505050565b601254601154600091829161383e91613ba2565b9050610952600360009054906101000a90046001600160a01b03166001600160a01b03166318160ddd6040518163ffffffff1660e01b815260040160206040518083038186803b15801561389157600080fd5b505afa1580156138a5573d6000803e3d6000fd5b505050506040513d60208110156138bb57600080fd5b5051826116e9565b600081848411156139525760405162461bcd60e51b81526004018080602001828103825283818151815260200191508051906020019080838360005b838110156139175781810151838201526020016138ff565b50505050905090810190601f1680156139445780820380516001836020036101000a031916815260200191505b509250505060405180910390fd5b505050900390565b60008082116139b0576040805162461bcd60e51b815260206004820152601a60248201527f536166654d6174683a206469766973696f6e206279207a65726f000000000000604482015290519081900360640190fd5b8183816139b957fe5b049392505050565b6013805460ff19166003179055600254604080516302d5537b60e41b815290516001600160a01b0390921691632d5537b091600480820192602092909190829003018186803b158015613a1357600080fd5b505afa158015613a27573d6000803e3d6000fd5b505050506040513d6020811015613a3d57600080fd5b5051604080516311f2df1b60e21b815290516001600160a01b03909216916347cb7c6c9160048082019260009290919082900301818387803b158015613a8257600080fd5b505af1158015613a96573d6000803e3d6000fd5b5050600554613ab192506001600160a01b0316905082613cc9565b600360009054906101000a90046001600160a01b03166001600160a01b0316638456cb596040518163ffffffff1660e01b8152600401600060405180830381600087803b158015613b0157600080fd5b505af1158015613b15573d6000803e3d6000fd5b50506040517f1b3fded7559ac6f503ef6da9a5c2322391699306cf412307650cebb15ba6ea28925060009150a150565b600082821115613b9c576040805162461bcd60e51b815260206004820152601e60248201527f536166654d6174683a207375627472616374696f6e206f766572666c6f770000604482015290519081900360640190fd5b50900390565b60008282018381101561127a576040805162461bcd60e51b815260206004820152601b60248201527f536166654d6174683a206164646974696f6e206f766572666c6f770000000000604482015290519081900360640190fd5b600082613c0b575060006134d2565b82820282848281613c1857fe5b041461127a5760405162461bcd60e51b81526004018080602001828103825260218152602001806152696021913960400191505060405180910390fd5b6000613c60826147f1565b905080613c6d5750613cc6565b6001600160a01b038216600090815260046020526040902060010154613c939082613ba2565b6001600160a01b03808416600090815260046020526040902060010191909155600a54613cc391168230856140b5565b50505b50565b601054600f546012546011546001600160a01b039384169390921691600091613cfe918691613cf89190613ba2565b90613b45565b9050806001600160a01b03841615613d9657836001600160a01b03166359846d2983856040518363ffffffff1660e01b815260040180838152602001826001600160a01b0316815260200192505050602060405180830381600087803b158015613d6757600080fd5b505af1158015613d7b573d6000803e3d6000fd5b505050506040513d6020811015613d9157600080fd5b505190505b6011859055600060128190558215613e2d576002546040805163ecced62360e01b815290516000926001600160a01b03169163ecced623916004808301926020929190829003018186803b158015613ded57600080fd5b505afa158015613e01573d6000803e3d6000fd5b505050506040513d6020811015613e1757600080fd5b50519050613e2981308a86898b6149f5565b9150505b604080516001600160a01b03891681526020810183905281517fc30fcfbcaac9e0deffa719714eaa82396ff506a0d0d0eebe170830177288715d929181900390910190a150505050505050565b6000613e8530614b40565b15905090565b600a54600f54600654600092613eaf926001600160a01b03918216929116906117eb565b600b54909150613ed19068327cb2734119d3b7a9601e1b9061094c9084613bfc565b831015613f0a576040805162461bcd60e51b8152602060048201526002602482015261199b60f11b604482015290519081900360640190fd5b613f158484846142f3565b50505050565b60008715613fa9576002546040805163ecced62360e01b81529051613fa2926001600160a01b03169163ecced623916004808301926020929190829003018186803b158015613f6957600080fd5b505afa158015613f7d573d6000803e3d6000fd5b505050506040513d6020811015613f9357600080fd5b50518484888a8960018e614b46565b9050611a70565b6002546040805163ecced62360e01b815290516117df926001600160a01b03169163ecced623916004808301926020929190829003018186803b158015613fef57600080fd5b505afa158015614003573d6000803e3d6000fd5b505050506040513d602081101561401957600080fd5b50518484888a8c8a614b72565b600080600260009054906101000a90046001600160a01b03166001600160a01b031663ecced6236040518163ffffffff1660e01b815260040160206040518083038186803b15801561407757600080fd5b505afa15801561408b573d6000803e3d6000fd5b505050506040513d60208110156140a157600080fd5b50519050611a708130338689898c8e614b46565b6000836140c4575060006135fc565b6001600160a01b0385166142ab57833410156141115760405162461bcd60e51b815260040180806020018281038252602e81526020018061520d602e913960400191505060405180910390fd5b6001600160a01b03821630146141bb576040516000906001600160a01b0384169086908381818185875af1925050503d806000811461416c576040519150601f19603f3d011682016040523d82523d6000602084013e614171565b606091505b50509050806141b9576040805162461bcd60e51b815260206004820152600f60248201526e151c985b9cd9995c8819985a5b1959608a1b604482015290519081900360640190fd5b505b8334111561425b57604051600090339034879003908381818185875af1925050503d8060008114614208576040519150601f19603f3d011682016040523d82523d6000602084013e61420d565b606091505b5050905080614255576040805162461bcd60e51b815260206004820152600f60248201526e151c985b9cd9995c8819985a5b1959608a1b604482015290519081900360640190fd5b506142a4565b8334146142a4576040805162461bcd60e51b815260206004820152601260248201527124b739bab33334b1b4b2b73a1022ba3432b960711b604482015290519081900360640190fd5b50826135fc565b6001600160a01b0383163014156142d5576142d06001600160a01b0386168386614b94565b6142ea565b6142ea6001600160a01b038616848487614be6565b50919392505050565b60026001541415614339576040805162461bcd60e51b815260206004820152601f60248201526000805160206151ed833981519152604482015290519081900360640190fd5b60026001908155600f546010546000926143659285926001600160a01b03918216918891168930613f1b565b6011549091506143759082613ba2565b601155604080516001600160a01b03861681526020810185905280820183905290517f11f8990ac38271f23dea447d5728e9914fca7cea2edda43af6c43c415f8bc30b9181900360600190a15050600180555050565b600160135460ff1660058111156143de57fe5b1480156143ec575060095442115b614422576040805162461bcd60e51b8152602060048201526002602482015261323760f01b604482015290519081900360640190fd5b6001600160a01b03811660009081526004602052604090206003015461444782611a7b565b614498576040805162461bcd60e51b815260206004820152601f60248201527f4e6f206d617267696e2063616c6c20686173206265656e2063616c6c65642e00604482015290519081900360640190fd5b4281106144d1576040805162461bcd60e51b8152602060048201526002602482015261064760f31b604482015290519081900360640190fd5b6144da826134d8565b600254600f5460408051626c78a760e71b81526001600160a01b039283166004820152905161452e93929092169163363c538091602480820192602092909190829003018186803b15801561288f57600080fd5b11614565576040805162461bcd60e51b8152602060048201526002602482015261323960f01b604482015290519081900360640190fd5b600354604080516370a0823160e01b81526001600160a01b038581166004830152915191909216916370a08231916024808301926020929190829003018186803b1580156145b257600080fd5b505afa1580156145c6573d6000803e3d6000fd5b505050506040513d60208110156145dc57600080fd5b50516134ba576040805162461bcd60e51b8152602060048201526002602482015261033360f41b604482015290519081900360640190fd5b601154600354604080516370a0823160e01b81526001600160a01b03858116600483015291516000948594909316916370a08231916024808301926020929190829003018186803b15801561466857600080fd5b505afa15801561467c573d6000803e3d6000fd5b505050506040513d602081101561469257600080fd5b5051600354604080516318160ddd60e01b81529051929450600092614716926001600160a01b0316916318160ddd916004808301926020929190829003018186803b1580156146e057600080fd5b505afa1580156146f4573d6000803e3d6000fd5b505050506040513d602081101561470a57600080fd5b505161094c8486613bfc565b6001600160a01b038616600090815260046020819052604090912001549091506147408383613b45565b6011556012546147509082613b45565b60125561475d8282613ba2565b9450505050915091565b6010546002546040805163acca944f60e01b815290516001600160a01b0393841693909216916000916147bf9186918591829163acca944f916004808301926020929190829003018186803b158015611ef857600080fd5b600a549091506001600160a01b03166147de876000838588338c613f1b565b506147e886613c55565b50505050505050565b600080600260009054906101000a90046001600160a01b03166001600160a01b031663171e10856040518163ffffffff1660e01b815260040160206040518083038186803b15801561484257600080fd5b505afa158015614856573d6000803e3d6000fd5b505050506040513d602081101561486c57600080fd5b505160408051630a3371f560e11b815230600482015290516001600160a01b0390921691631466e3ea91602480820192602092909190829003018186803b1580156148b657600080fd5b505afa1580156148ca573d6000803e3d6000fd5b505050506040513d60208110156148e057600080fd5b50516001600160a01b0380851660009081526004602081815260408084206001015460035482516318160ddd60e01b8152925197985094966135fc969195613cf8959216936318160ddd938084019391929190829003018186803b15801561494757600080fd5b505afa15801561495b573d6000803e3d6000fd5b505050506040513d602081101561497157600080fd5b5051600354604080516370a0823160e01b81526001600160a01b038b81166004830152915161094c938a9316916370a08231916024808301926020929190829003018186803b1580156149c357600080fd5b505afa1580156149d7573d6000803e3d6000fd5b505050506040513d60208110156149ed57600080fd5b505190613bfc565b60006001600160a01b038616301415614a9d5760408051633c6340f360e21b81526001600160a01b038581166004830152878116602483015284811660448301526064820187905291519189169163f18d03cc916084808201926020929091908290030181600087803b158015614a6b57600080fd5b505af1158015614a7f573d6000803e3d6000fd5b505050506040513d6020811015614a9557600080fd5b50614b359050565b60408051633713ade960e11b81526001600160a01b03858116600483015288811660248301528781166044830152848116606483015260848201879052915191891691636e275bd29160a4808201926020929091908290030181600087803b158015614b0857600080fd5b505af1158015614b1c573d6000803e3d6000fd5b505050506040513d6020811015614b3257600080fd5b50505b509195945050505050565b3b151590565b60008115614b6357614b5c8989898989896149f5565b90506117df565b614b5c89898989898989614c40565b60008215614b8857613fa2888888888887614d9c565b613fa2848689896140b5565b604080516001600160a01b038416602482015260448082018490528251808303909101815260649091019091526020810180516001600160e01b031663a9059cbb60e01b179052613cc3908490614e77565b604080516001600160a01b0380861660248301528416604482015260648082018490528251808303909101815260849091019091526020810180516001600160e01b03166323b872dd60e01b179052613f15908590614e77565b60006001600160a01b038716301415614cf157604080516396885ed360e01b81526001600160a01b038881166004830152602482018890528681166044830152858116606483015284151560848301529151918a16916396885ed39160a4808201926020929091908290030181600087803b158015614cbe57600080fd5b505af1158015614cd2573d6000803e3d6000fd5b505050506040513d6020811015614ce857600080fd5b50519050611a70565b60408051630bcbab2960e21b81526001600160a01b0389811660048301528881166024830152604482018890528681166064830152858116608483015284151560a48301529151918a1691632f2eaca49160c4808201926020929091908290030181600087803b158015614d6457600080fd5b505af1158015614d78573d6000803e3d6000fd5b505050506040513d6020811015614d8e57600080fd5b505198975050505050505050565b6000614daa838588306140b5565b5060006001600160a01b038416614dc2575083614dea565b826001600160a01b038116614dd45750875b614de86001600160a01b0386168288614f28565b505b6040805162a3da2560e61b8152600481018790526001600160a01b038681166024830152858116604483015288811660648301529151918a16916328f68940918491608480830192602092919082900301818588803b158015614e4c57600080fd5b505af1158015614e60573d6000803e3d6000fd5b50505050506040513d6020811015614d8e57600080fd5b6060614ecc826040518060400160405280602081526020017f5361666545524332303a206c6f772d6c6576656c2063616c6c206661696c6564815250856001600160a01b031661503b9092919063ffffffff16565b805190915015613cc357808060200190516020811015614eeb57600080fd5b5051613cc35760405162461bcd60e51b815260040180806020018281038252602a81526020018061528a602a913960400191505060405180910390fd5b801580614fae575060408051636eb1769f60e11b81523060048201526001600160a01b03848116602483015291519185169163dd62ed3e91604480820192602092909190829003018186803b158015614f8057600080fd5b505afa158015614f94573d6000803e3d6000fd5b505050506040513d6020811015614faa57600080fd5b5051155b614fe95760405162461bcd60e51b81526004018080602001828103825260368152602001806152b46036913960400191505060405180910390fd5b604080516001600160a01b038416602482015260448082018490528251808303909101815260649091019091526020810180516001600160e01b031663095ea7b360e01b179052613cc3908490614e77565b60606135fc84846000858561504f85614b40565b6150a0576040805162461bcd60e51b815260206004820152601d60248201527f416464726573733a2063616c6c20746f206e6f6e2d636f6e7472616374000000604482015290519081900360640190fd5b60006060866001600160a01b031685876040518082805190602001908083835b602083106150df5780518252601f1990920191602091820191016150c0565b6001836020036101000a03801982511681845116808217855250505050505090500191505060006040518083038185875af1925050503d8060008114615141576040519150601f19603f3d011682016040523d82523d6000602084013e615146565b606091505b5091509150611a708282866060831561516057508161127a565b8251156151705782518084602001fd5b60405162461bcd60e51b81526020600482018181528451602484015284518593919283926044019190850190808383600083156139175781810151838201526020016138ff56fe506f6f6c3a3a6c6971756964617465506f6f6c202d204e6f20726561736f6e20746f206c69717569646174652074686520706f6f6c5265656e7472616e637947756172643a207265656e7472616e742063616c6c006574686572732070726f76696465642073686f756c642062652067726561746572207468616e205f616d6f756e74496e697469616c697a61626c653a20636f6e747261637420697320616c726561647920696e697469616c697a6564536166654d6174683a206d756c7469706c69636174696f6e206f766572666c6f775361666545524332303a204552433230206f7065726174696f6e20646964206e6f7420737563636565645361666545524332303a20617070726f76652066726f6d206e6f6e2d7a65726f20746f206e6f6e2d7a65726f20616c6c6f77616e6365a26469706673582212207837d66b6edef193c0840b5863f5259b23b4aabc996543e674aa4c14074e66a164736f6c63430007000033",
  "linkReferences": {},
  "deployedLinkReferences": {}
}