{
  "_format": "hh-sol-artifact-1",
  "contractName": "YearnYield",
  "sourceName": "contracts/yield/YearnYield.sol",
  "abi": [
    {
      "anonymous": false,
      "inputs": [
        {
          "indexed": false,
          "internalType": "address",
          "name": "user",
          "type": "address"
        },
        {
          "indexed": false,
          "internalType": "address",
          "name": "investedTo",
          "type": "address"
        },
        {
          "indexed": false,
          "internalType": "uint256",
          "name": "lpTokensReceived",
          "type": "uint256"
        }
      ],
      "name": "LockedTokens",
      "type": "event"
    },
    {
      "anonymous": false,
      "inputs": [
        {
          "indexed": true,
          "internalType": "address",
          "name": "previousOwner",
          "type": "address"
        },
        {
          "indexed": true,
          "internalType": "address",
          "name": "newOwner",
          "type": "address"
        }
      ],
      "name": "OwnershipTransferred",
      "type": "event"
    },
    {
      "anonymous": false,
      "inputs": [
        {
          "indexed": false,
          "internalType": "address",
          "name": "asset",
          "type": "address"
        },
        {
          "indexed": false,
          "internalType": "address",
          "name": "protocolToken",
          "type": "address"
        }
      ],
      "name": "ProtocolAddressesUpdated",
      "type": "event"
    },
    {
      "anonymous": false,
      "inputs": [
        {
          "indexed": false,
          "internalType": "address",
          "name": "savingsAccount",
          "type": "address"
        }
      ],
      "name": "SavingsAccountUpdated",
      "type": "event"
    },
    {
      "anonymous": false,
      "inputs": [
        {
          "indexed": false,
          "internalType": "address",
          "name": "asset",
          "type": "address"
        },
        {
          "indexed": false,
          "internalType": "uint256",
          "name": "sharesReleased",
          "type": "uint256"
        }
      ],
      "name": "UnlockedShares",
      "type": "event"
    },
    {
      "anonymous": false,
      "inputs": [
        {
          "indexed": false,
          "internalType": "address",
          "name": "investedTo",
          "type": "address"
        },
        {
          "indexed": false,
          "internalType": "uint256",
          "name": "collateralReceived",
          "type": "uint256"
        }
      ],
      "name": "UnlockedTokens",
      "type": "event"
    },
    {
      "inputs": [
        {
          "internalType": "address",
          "name": "_asset",
          "type": "address"
        },
        {
          "internalType": "address payable",
          "name": "_wallet",
          "type": "address"
        }
      ],
      "name": "emergencyWithdraw",
      "outputs": [
        {
          "internalType": "uint256",
          "name": "received",
          "type": "uint256"
        }
      ],
      "stateMutability": "nonpayable",
      "type": "function"
    },
    {
      "inputs": [
        {
          "internalType": "uint256",
          "name": "amount",
          "type": "uint256"
        },
        {
          "internalType": "address",
          "name": "asset",
          "type": "address"
        }
      ],
      "name": "getSharesForTokens",
      "outputs": [
        {
          "internalType": "uint256",
          "name": "shares",
          "type": "uint256"
        }
      ],
      "stateMutability": "view",
      "type": "function"
    },
    {
      "inputs": [
        {
          "internalType": "uint256",
          "name": "shares",
          "type": "uint256"
        },
        {
          "internalType": "address",
          "name": "asset",
          "type": "address"
        }
      ],
      "name": "getTokensForShares",
      "outputs": [
        {
          "internalType": "uint256",
          "name": "amount",
          "type": "uint256"
        }
      ],
      "stateMutability": "view",
      "type": "function"
    },
    {
      "inputs": [
        {
          "internalType": "address",
          "name": "_owner",
          "type": "address"
        },
        {
          "internalType": "address payable",
          "name": "_savingsAccount",
          "type": "address"
        }
      ],
      "name": "initialize",
      "outputs": [],
      "stateMutability": "nonpayable",
      "type": "function"
    },
    {
      "inputs": [
        {
          "internalType": "address",
          "name": "",
          "type": "address"
        }
      ],
      "name": "liquidityToken",
      "outputs": [
        {
          "internalType": "address",
          "name": "",
          "type": "address"
        }
      ],
      "stateMutability": "view",
      "type": "function"
    },
    {
      "inputs": [
        {
          "internalType": "address",
          "name": "user",
          "type": "address"
        },
        {
          "internalType": "address",
          "name": "asset",
          "type": "address"
        },
        {
          "internalType": "uint256",
          "name": "amount",
          "type": "uint256"
        }
      ],
      "name": "lockTokens",
      "outputs": [
        {
          "internalType": "uint256",
          "name": "sharesReceived",
          "type": "uint256"
        }
      ],
      "stateMutability": "payable",
      "type": "function"
    },
    {
      "inputs": [],
      "name": "owner",
      "outputs": [
        {
          "internalType": "address",
          "name": "",
          "type": "address"
        }
      ],
      "stateMutability": "view",
      "type": "function"
    },
    {
      "inputs": [],
      "name": "renounceOwnership",
      "outputs": [],
      "stateMutability": "nonpayable",
      "type": "function"
    },
    {
      "inputs": [],
      "name": "savingsAccount",
      "outputs": [
        {
          "internalType": "address payable",
          "name": "",
          "type": "address"
        }
      ],
      "stateMutability": "view",
      "type": "function"
    },
    {
      "inputs": [
        {
          "internalType": "address",
          "name": "newOwner",
          "type": "address"
        }
      ],
      "name": "transferOwnership",
      "outputs": [],
      "stateMutability": "nonpayable",
      "type": "function"
    },
    {
      "inputs": [
        {
          "internalType": "address",
          "name": "asset",
          "type": "address"
        },
        {
          "internalType": "uint256",
          "name": "amount",
          "type": "uint256"
        }
      ],
      "name": "unlockShares",
      "outputs": [
        {
          "internalType": "uint256",
          "name": "",
          "type": "uint256"
        }
      ],
      "stateMutability": "nonpayable",
      "type": "function"
    },
    {
      "inputs": [
        {
          "internalType": "address",
          "name": "asset",
          "type": "address"
        },
        {
          "internalType": "uint256",
          "name": "amount",
          "type": "uint256"
        }
      ],
      "name": "unlockTokens",
      "outputs": [
        {
          "internalType": "uint256",
          "name": "received",
          "type": "uint256"
        }
      ],
      "stateMutability": "nonpayable",
      "type": "function"
    },
    {
      "inputs": [
        {
          "internalType": "address",
          "name": "asset",
          "type": "address"
        },
        {
          "internalType": "address",
          "name": "to",
          "type": "address"
        }
      ],
      "name": "updateProtocolAddresses",
      "outputs": [],
      "stateMutability": "nonpayable",
      "type": "function"
    },
    {
      "inputs": [
        {
          "internalType": "address payable",
          "name": "_savingsAccount",
          "type": "address"
        }
      ],
      "name": "updateSavingsAccount",
      "outputs": [],
      "stateMutability": "nonpayable",
      "type": "function"
    },
    {
      "stateMutability": "payable",
      "type": "receive"
    }
  ],
  "bytecode": "0x608060405234801561001057600080fd5b506001606555611e1e806100256000396000f3fe6080604052600436106100e15760003560e01c8063715018a61161007f578063934a525211610059578063934a5252146103065780639d564d9a1461033f578063ecced62314610378578063f2fde38b1461038d576100e8565b8063715018a6146102a357806376467da0146102b85780638da5cb5b146102f1576100e8565b8063485cc955116100bb578063485cc955146101c157806359846d29146101fc5780636382d9ad146102355780636cf14f9d14610270576100e8565b8063050470f1146100ed5780631391abc71461012a5780634767ceee14610179576100e8565b366100e857005b600080fd5b3480156100f957600080fd5b506101286004803603604081101561011057600080fd5b506001600160a01b03813581169160200135166103c0565b005b34801561013657600080fd5b5061015d6004803603602081101561014d57600080fd5b50356001600160a01b031661048f565b604080516001600160a01b039092168252519081900360200190f35b6101af6004803603606081101561018f57600080fd5b506001600160a01b038135811691602081013590911690604001356104aa565b60408051918252519081900360200190f35b3480156101cd57600080fd5b50610128600480360360408110156101e457600080fd5b506001600160a01b038135811691602001351661068a565b34801561020857600080fd5b506101af6004803603604081101561021f57600080fd5b50803590602001356001600160a01b0316610748565b34801561024157600080fd5b506101af6004803603604081101561025857600080fd5b506001600160a01b0381358116916020013516610819565b34801561027c57600080fd5b506101286004803603602081101561029357600080fd5b50356001600160a01b0316610a34565b3480156102af57600080fd5b50610128610aa2565b3480156102c457600080fd5b506101af600480360360408110156102db57600080fd5b506001600160a01b038135169060200135610b4e565b3480156102fd57600080fd5b5061015d610cb3565b34801561031257600080fd5b506101af6004803603604081101561032957600080fd5b50803590602001356001600160a01b0316610cc2565b34801561034b57600080fd5b506101af6004803603604081101561036257600080fd5b506001600160a01b038135169060200135610ceb565b34801561038457600080fd5b5061015d610f1e565b34801561039957600080fd5b50610128600480360360208110156103b057600080fd5b50356001600160a01b0316610f2d565b6103c8611030565b6001600160a01b03166103d9610cb3565b6001600160a01b031614610422576040805162461bcd60e51b81526020600482018190526024820152600080516020611d9f833981519152604482015290519081900360640190fd5b6001600160a01b0382811660008181526067602090815260409182902080546001600160a01b0319169486169485179055815192835282019290925281517f56f1579ee95049fdf09d13a9dff4ee7dceb865ba851790c867e5e43938ccdcaa929181900390910190a15050565b6067602052600090815260409020546001600160a01b031681565b6066546000906001600160a01b03166104c1611030565b6001600160a01b0316146105065760405162461bcd60e51b8152600401808060200182810382526027815260200180611d036027913960400191505060405180910390fd5b6002606554141561054c576040805162461bcd60e51b815260206004820152601f6024820152600080516020611c9b833981519152604482015290519081900360640190fd5b600260655581610594576040805162461bcd60e51b815260206004820152600e60248201526d125b9d995cdd0e88185b5bdd5b9d60921b604482015290519081900360640190fd5b6001600160a01b0380841660008181526067602052604090205490911690610610578234146105ff576040805162461bcd60e51b8152602060048201526012602482015271125b9d995cdd0e8811551208185b5bdd5b9d60721b604482015290519081900360640190fd5b6106098184611034565b9150610633565b6106256001600160a01b03851686308661119a565b6106308482856111fa565b91505b604080516001600160a01b0380881682528316602082015280820184905290517f71538b5e30c18b86003771476b5887a8f118d796b2a4a2a5960e0ac1b10962d39181900360600190a15060016065559392505050565b600054610100900460ff16806106a357506106a36113b2565b806106b1575060005460ff16155b6106ec5760405162461bcd60e51b815260040180806020018281038252602e815260200180611d50602e913960400191505060405180910390fd5b600054610100900460ff16158015610717576000805460ff1961ff0019909116610100171660011790555b61071f6113c3565b61072883610f2d565b61073182611474565b8015610743576000805461ff00191690555b505050565b60008261075757506000610813565b610810670de0b6b3a764000061080a8560676000876001600160a01b03166001600160a01b0316815260200190815260200160002060009054906101000a90046001600160a01b03166001600160a01b03166377c7b8fc6040518163ffffffff1660e01b815260040160206040518083038186803b1580156107d857600080fd5b505afa1580156107ec573d6000803e3d6000fd5b505050506040513d602081101561080257600080fd5b50519061151a565b90611573565b90505b92915050565b6000610823611030565b6001600160a01b0316610834610cb3565b6001600160a01b03161461087d576040805162461bcd60e51b81526020600482018190526024820152600080516020611d9f833981519152604482015290519081900360640190fd5b600260655414156108c3576040805162461bcd60e51b815260206004820152601f6024820152600080516020611c9b833981519152604482015290519081900360640190fd5b60026065556001600160a01b0380841660009081526067602090815260408083205481516370a0823160e01b8152306004820152915194169384926370a082319260248082019391829003018186803b15801561091f57600080fd5b505afa158015610933573d6000803e3d6000fd5b505050506040513d602081101561094957600080fd5b505190506001600160a01b038516610a065761096582826115da565b6040519093506000906001600160a01b0386169085908381818185875af1925050503d80600081146109b3576040519150601f19603f3d011682016040523d82523d6000602084013e6109b8565b606091505b5050905080610a00576040805162461bcd60e51b815260206004820152600f60248201526e151c985b9cd9995c8819985a5b1959608a1b604482015290519081900360640190fd5b50610a27565b610a11858383611651565b9250610a276001600160a01b0386168585611782565b5050600160655592915050565b610a3c611030565b6001600160a01b0316610a4d610cb3565b6001600160a01b031614610a96576040805162461bcd60e51b81526020600482018190526024820152600080516020611d9f833981519152604482015290519081900360640190fd5b610a9f81611474565b50565b610aaa611030565b6001600160a01b0316610abb610cb3565b6001600160a01b031614610b04576040805162461bcd60e51b81526020600482018190526024820152600080516020611d9f833981519152604482015290519081900360640190fd5b6033546040516000916001600160a01b0316907f8be0079c531659141344cd1fd0a4f28419497f9722a3daafe3b4186f6b6457e0908390a3603380546001600160a01b0319169055565b6066546000906001600160a01b0316610b65611030565b6001600160a01b031614610baa5760405162461bcd60e51b8152600401808060200182810382526027815260200180611d036027913960400191505060405180910390fd5b60026065541415610bf0576040805162461bcd60e51b815260206004820152601f6024820152600080516020611c9b833981519152604482015290519081900360640190fd5b600260655581610c0257506000610ca8565b6001600160a01b038316610c475760405162461bcd60e51b8152600401808060200182810382526022815260200180611ce16022913960400191505060405180910390fd5b606654610c61906001600160a01b03858116911684611782565b604080516001600160a01b03851681526020810184905281517f176b3c3d1f486b4519305078c763e6ca126c940ea1a8a024bdb0316c08ad6ede929181900390910190a150805b600160655592915050565b6033546001600160a01b031690565b6000610810610cd9670de0b6b3a764000084610748565b61080a85670de0b6b3a764000061151a565b6066546000906001600160a01b0316610d02611030565b6001600160a01b031614610d475760405162461bcd60e51b8152600401808060200182810382526027815260200180611d036027913960400191505060405180910390fd5b60026065541415610d8d576040805162461bcd60e51b815260206004820152601f6024820152600080516020611c9b833981519152604482015290519081900360640190fd5b600260655581610dd5576040805162461bcd60e51b815260206004820152600e60248201526d125b9d995cdd0e88185b5bdd5b9d60921b604482015290519081900360640190fd5b6001600160a01b0380841660008181526067602052604090205490911690610ea657610e0181846115da565b6066546040519193506000916001600160a01b039091169084908381818185875af1925050503d8060008114610e53576040519150601f19603f3d011682016040523d82523d6000602084013e610e58565b606091505b5050905080610ea0576040805162461bcd60e51b815260206004820152600f60248201526e151c985b9cd9995c8819985a5b1959608a1b604482015290519081900360640190fd5b50610ece565b610eb1848285611651565b606654909250610ece906001600160a01b03868116911684611782565b604080516001600160a01b03861681526020810184905281517faf08a4db36432bb5cbbfdfcf5af1040246483dc0dae8a9616cc79816c432fee9929181900390910190a150600160655592915050565b6066546001600160a01b031681565b610f35611030565b6001600160a01b0316610f46610cb3565b6001600160a01b031614610f8f576040805162461bcd60e51b81526020600482018190526024820152600080516020611d9f833981519152604482015290519081900360640190fd5b6001600160a01b038116610fd45760405162461bcd60e51b8152600401808060200182810382526026815260200180611cbb6026913960400191505060405180910390fd5b6033546040516001600160a01b038084169216907f8be0079c531659141344cd1fd0a4f28419497f9722a3daafe3b4186f6b6457e090600090a3603380546001600160a01b0319166001600160a01b0392909216919091179055565b3390565b600080836001600160a01b03166370a08231306040518263ffffffff1660e01b815260040180826001600160a01b0316815260200191505060206040518083038186803b15801561108457600080fd5b505afa158015611098573d6000803e3d6000fd5b505050506040513d60208110156110ae57600080fd5b50516040805163f6326fb360e01b815290519192506001600160a01b0386169163f6326fb3918691600480830192600092919082900301818588803b1580156110f657600080fd5b505af115801561110a573d6000803e3d6000fd5b505050505061119281856001600160a01b03166370a08231306040518263ffffffff1660e01b815260040180826001600160a01b0316815260200191505060206040518083038186803b15801561116057600080fd5b505afa158015611174573d6000803e3d6000fd5b505050506040513d602081101561118a57600080fd5b5051906117d4565b949350505050565b604080516001600160a01b0380861660248301528416604482015260648082018490528251808303909101815260849091019091526020810180516001600160e01b03166323b872dd60e01b1790526111f4908590611831565b50505050565b600080836001600160a01b03166370a08231306040518263ffffffff1660e01b815260040180826001600160a01b0316815260200191505060206040518083038186803b15801561124a57600080fd5b505afa15801561125e573d6000803e3d6000fd5b505050506040513d602081101561127457600080fd5b50516040805163095ea7b360e01b81526001600160a01b0387811660048301526024820187905291519293509087169163095ea7b3916044808201926020929091908290030181600087803b1580156112cc57600080fd5b505af11580156112e0573d6000803e3d6000fd5b505050506040513d60208110156112f657600080fd5b50506040805163b6b55f2560e01b81526004810185905290516001600160a01b0386169163b6b55f2591602480830192600092919082900301818387803b15801561134057600080fd5b505af1158015611354573d6000803e3d6000fd5b505050506113a981856001600160a01b03166370a08231306040518263ffffffff1660e01b815260040180826001600160a01b0316815260200191505060206040518083038186803b15801561116057600080fd5b95945050505050565b60006113bd306118e2565b15905090565b600054610100900460ff16806113dc57506113dc6113b2565b806113ea575060005460ff16155b6114255760405162461bcd60e51b815260040180806020018281038252602e815260200180611d50602e913960400191505060405180910390fd5b600054610100900460ff16158015611450576000805460ff1961ff0019909116610100171660011790555b6114586118e8565b611460611988565b8015610a9f576000805461ff001916905550565b6001600160a01b0381166114c6576040805162461bcd60e51b8152602060048201526014602482015273496e766573743a207a65726f206164647265737360601b604482015290519081900360640190fd5b606680546001600160a01b0383166001600160a01b0319909116811790915560408051918252517f5e8a3d56d9512a62f643367551a65727148c2516dce6b54956df80926dd2536c9181900360200190a150565b60008261152957506000610813565b8282028284828161153657fe5b04146108105760405162461bcd60e51b8152600401808060200182810382526021815260200180611d7e6021913960400191505060405180910390fd5b60008082116115c9576040805162461bcd60e51b815260206004820152601a60248201527f536166654d6174683a206469766973696f6e206279207a65726f000000000000604482015290519081900360640190fd5b8183816115d257fe5b049392505050565b600080479050836001600160a01b031663f14210a6846040518263ffffffff1660e01b815260040180828152602001915050600060405180830381600087803b15801561162657600080fd5b505af115801561163a573d6000803e3d6000fd5b5050505061119281476117d490919063ffffffff16565b600080846001600160a01b03166370a08231306040518263ffffffff1660e01b815260040180826001600160a01b0316815260200191505060206040518083038186803b1580156116a157600080fd5b505afa1580156116b5573d6000803e3d6000fd5b505050506040513d60208110156116cb57600080fd5b505160408051632e1a7d4d60e01b81526004810186905290519192506001600160a01b03861691632e1a7d4d9160248082019260009290919082900301818387803b15801561171957600080fd5b505af115801561172d573d6000803e3d6000fd5b505050506113a981866001600160a01b03166370a08231306040518263ffffffff1660e01b815260040180826001600160a01b0316815260200191505060206040518083038186803b15801561116057600080fd5b604080516001600160a01b038416602482015260448082018490528251808303909101815260649091019091526020810180516001600160e01b031663a9059cbb60e01b179052610743908490611831565b60008282111561182b576040805162461bcd60e51b815260206004820152601e60248201527f536166654d6174683a207375627472616374696f6e206f766572666c6f770000604482015290519081900360640190fd5b50900390565b6060611886826040518060400160405280602081526020017f5361666545524332303a206c6f772d6c6576656c2063616c6c206661696c6564815250856001600160a01b0316611a819092919063ffffffff16565b805190915015610743578080602001905160208110156118a557600080fd5b50516107435760405162461bcd60e51b815260040180806020018281038252602a815260200180611dbf602a913960400191505060405180910390fd5b3b151590565b600054610100900460ff168061190157506119016113b2565b8061190f575060005460ff16155b61194a5760405162461bcd60e51b815260040180806020018281038252602e815260200180611d50602e913960400191505060405180910390fd5b600054610100900460ff16158015611460576000805460ff1961ff0019909116610100171660011790558015610a9f576000805461ff001916905550565b600054610100900460ff16806119a157506119a16113b2565b806119af575060005460ff16155b6119ea5760405162461bcd60e51b815260040180806020018281038252602e815260200180611d50602e913960400191505060405180910390fd5b600054610100900460ff16158015611a15576000805460ff1961ff0019909116610100171660011790555b6000611a1f611030565b603380546001600160a01b0319166001600160a01b038316908117909155604051919250906000907f8be0079c531659141344cd1fd0a4f28419497f9722a3daafe3b4186f6b6457e0908290a3508015610a9f576000805461ff001916905550565b6060611a908484600085611a9a565b90505b9392505050565b606082471015611adb5760405162461bcd60e51b8152600401808060200182810382526026815260200180611d2a6026913960400191505060405180910390fd5b611ae4856118e2565b611b35576040805162461bcd60e51b815260206004820152601d60248201527f416464726573733a2063616c6c20746f206e6f6e2d636f6e7472616374000000604482015290519081900360640190fd5b60006060866001600160a01b031685876040518082805190602001908083835b60208310611b745780518252601f199092019160209182019101611b55565b6001836020036101000a03801982511681845116808217855250505050505090500191505060006040518083038185875af1925050503d8060008114611bd6576040519150601f19603f3d011682016040523d82523d6000602084013e611bdb565b606091505b5091509150611beb828286611bf6565b979650505050505050565b60608315611c05575081611a93565b825115611c155782518084602001fd5b8160405162461bcd60e51b81526004018080602001828103825283818151815260200191508051906020019080838360005b83811015611c5f578181015183820152602001611c47565b50505050905090810190601f168015611c8c5780820380516001836020036101000a031916815260200191505b509250505060405180910390fdfe5265656e7472616e637947756172643a207265656e7472616e742063616c6c004f776e61626c653a206e6577206f776e657220697320746865207a65726f2061646472657373417373657420616464726573732063616e6e6f742062652061646472657373283029496e766573743a204f6e6c7920736176696e6773206163636f756e742063616e20696e766f6b65416464726573733a20696e73756666696369656e742062616c616e636520666f722063616c6c496e697469616c697a61626c653a20636f6e747261637420697320616c726561647920696e697469616c697a6564536166654d6174683a206d756c7469706c69636174696f6e206f766572666c6f774f776e61626c653a2063616c6c6572206973206e6f7420746865206f776e65725361666545524332303a204552433230206f7065726174696f6e20646964206e6f742073756363656564a264697066735822122031b3fc17f23d7447570f4a79e1502b97b54940f9a134ddb7a66a53943611214564736f6c63430007000033",
  "linkReferences": {},
  "deployedLinkReferences": {}
}