{
  "_format": "hh-sol-artifact-1",
  "contractName": "PoolFactory",
  "sourceName": "contracts/Pool/PoolFactory.sol",
  "abi": [
    {
      "anonymous": false,
      "inputs": [
        {
          "indexed": false,
          "internalType": "address",
          "name": "borrowToken",
          "type": "address"
        },
        {
          "indexed": false,
          "internalType": "bool",
          "name": "isSupported",
          "type": "bool"
        }
      ],
      "name": "BorrowTokenUpdated",
      "type": "event"
    },
    {
      "anonymous": false,
      "inputs": [
        {
          "indexed": false,
          "internalType": "address",
          "name": "collateralToken",
          "type": "address"
        },
        {
          "indexed": false,
          "internalType": "bool",
          "name": "isSupported",
          "type": "bool"
        }
      ],
      "name": "CollateralTokenUpdated",
      "type": "event"
    },
    {
      "anonymous": false,
      "inputs": [
        {
          "indexed": false,
          "internalType": "uint256",
          "name": "updatedCollectionPeriod",
          "type": "uint256"
        }
      ],
      "name": "CollectionPeriodUpdated",
      "type": "event"
    },
    {
      "anonymous": false,
      "inputs": [
        {
          "indexed": false,
          "internalType": "address",
          "name": "updatedExtension",
          "type": "address"
        }
      ],
      "name": "ExtensionImplUpdated",
      "type": "event"
    },
    {
      "anonymous": false,
      "inputs": [
        {
          "indexed": false,
          "internalType": "uint256",
          "name": "updatedGracePeriodPenaltyFraction",
          "type": "uint256"
        }
      ],
      "name": "GracePeriodPenaltyFractionUpdated",
      "type": "event"
    },
    {
      "anonymous": false,
      "inputs": [
        {
          "indexed": false,
          "internalType": "string",
          "name": "limitType",
          "type": "string"
        },
        {
          "indexed": false,
          "internalType": "uint256",
          "name": "max",
          "type": "uint256"
        },
        {
          "indexed": false,
          "internalType": "uint256",
          "name": "min",
          "type": "uint256"
        }
      ],
      "name": "LimitsUpdated",
      "type": "event"
    },
    {
      "anonymous": false,
      "inputs": [
        {
          "indexed": false,
          "internalType": "uint256",
          "name": "updatedLiquidatorRewardFraction",
          "type": "uint256"
        }
      ],
      "name": "LiquidatorRewardFractionUpdated",
      "type": "event"
    },
    {
      "anonymous": false,
      "inputs": [
        {
          "indexed": false,
          "internalType": "uint256",
          "name": "updatedMarginCallDuration",
          "type": "uint256"
        }
      ],
      "name": "MarginCallDurationUpdated",
      "type": "event"
    },
    {
      "anonymous": false,
      "inputs": [
        {
          "indexed": false,
          "internalType": "uint256",
          "name": "updatedMatchCollateralRatioInterval",
          "type": "uint256"
        }
      ],
      "name": "MatchCollateralRatioIntervalUpdated",
      "type": "event"
    },
    {
      "anonymous": false,
      "inputs": [
        {
          "indexed": false,
          "internalType": "uint256",
          "name": "updatedMinBorrowFraction",
          "type": "uint256"
        }
      ],
      "name": "MinBorrowFractionUpdated",
      "type": "event"
    },
    {
      "anonymous": false,
      "inputs": [
        {
          "indexed": true,
          "internalType": "address",
          "name": "previousOwner",
          "type": "address"
        },
        {
          "indexed": true,
          "internalType": "address",
          "name": "newOwner",
          "type": "address"
        }
      ],
      "name": "OwnershipTransferred",
      "type": "event"
    },
    {
      "anonymous": false,
      "inputs": [
        {
          "indexed": false,
          "internalType": "uint256",
          "name": "updatedPoolCancelPenaltyFraction",
          "type": "uint256"
        }
      ],
      "name": "PoolCancelPenaltyFractionUpdated",
      "type": "event"
    },
    {
      "anonymous": false,
      "inputs": [
        {
          "indexed": false,
          "internalType": "address",
          "name": "pool",
          "type": "address"
        },
        {
          "indexed": false,
          "internalType": "address",
          "name": "borrower",
          "type": "address"
        },
        {
          "indexed": false,
          "internalType": "address",
          "name": "poolToken",
          "type": "address"
        }
      ],
      "name": "PoolCreated",
      "type": "event"
    },
    {
      "anonymous": false,
      "inputs": [
        {
          "indexed": false,
          "internalType": "bytes4",
          "name": "updatedSelector",
          "type": "bytes4"
        }
      ],
      "name": "PoolInitSelectorUpdated",
      "type": "event"
    },
    {
      "anonymous": false,
      "inputs": [
        {
          "indexed": false,
          "internalType": "address",
          "name": "updatedPoolLogic",
          "type": "address"
        }
      ],
      "name": "PoolLogicUpdated",
      "type": "event"
    },
    {
      "anonymous": false,
      "inputs": [
        {
          "indexed": false,
          "internalType": "address",
          "name": "updatedPoolTokenImpl",
          "type": "address"
        }
      ],
      "name": "PoolTokenImplUpdated",
      "type": "event"
    },
    {
      "anonymous": false,
      "inputs": [
        {
          "indexed": false,
          "internalType": "bytes4",
          "name": "updatedSelector",
          "type": "bytes4"
        }
      ],
      "name": "PoolTokenInitFuncSelector",
      "type": "event"
    },
    {
      "anonymous": false,
      "inputs": [
        {
          "indexed": false,
          "internalType": "address",
          "name": "updatedPriceOracle",
          "type": "address"
        }
      ],
      "name": "PriceOracleUpdated",
      "type": "event"
    },
    {
      "anonymous": false,
      "inputs": [
        {
          "indexed": false,
          "internalType": "address",
          "name": "updatedProtocolFeeCollector",
          "type": "address"
        }
      ],
      "name": "ProtocolFeeCollectorUpdated",
      "type": "event"
    },
    {
      "anonymous": false,
      "inputs": [
        {
          "indexed": false,
          "internalType": "uint256",
          "name": "updatedProtocolFee",
          "type": "uint256"
        }
      ],
      "name": "ProtocolFeeFractionUpdated",
      "type": "event"
    },
    {
      "anonymous": false,
      "inputs": [
        {
          "indexed": false,
          "internalType": "address",
          "name": "updatedRepaymentImpl",
          "type": "address"
        }
      ],
      "name": "RepaymentImplUpdated",
      "type": "event"
    },
    {
      "anonymous": false,
      "inputs": [
        {
          "indexed": false,
          "internalType": "address",
          "name": "savingsAccount",
          "type": "address"
        }
      ],
      "name": "SavingsAccountUpdated",
      "type": "event"
    },
    {
      "anonymous": false,
      "inputs": [
        {
          "indexed": false,
          "internalType": "address",
          "name": "updatedStrategyRegistry",
          "type": "address"
        }
      ],
      "name": "StrategyRegistryUpdated",
      "type": "event"
    },
    {
      "anonymous": false,
      "inputs": [
        {
          "indexed": false,
          "internalType": "address",
          "name": "updatedBorrowerRegistry",
          "type": "address"
        }
      ],
      "name": "UserRegistryUpdated",
      "type": "event"
    },
    {
      "inputs": [],
      "name": "MINTER_ROLE",
      "outputs": [
        {
          "internalType": "bytes32",
          "name": "",
          "type": "bytes32"
        }
      ],
      "stateMutability": "view",
      "type": "function"
    },
    {
      "inputs": [],
      "name": "PAUSER_ROLE",
      "outputs": [
        {
          "internalType": "bytes32",
          "name": "",
          "type": "bytes32"
        }
      ],
      "stateMutability": "view",
      "type": "function"
    },
    {
      "inputs": [],
      "name": "collectionPeriod",
      "outputs": [
        {
          "internalType": "uint256",
          "name": "",
          "type": "uint256"
        }
      ],
      "stateMutability": "view",
      "type": "function"
    },
    {
      "inputs": [
        {
          "internalType": "uint256",
          "name": "_poolSize",
          "type": "uint256"
        },
        {
          "internalType": "uint256",
          "name": "_borrowRate",
          "type": "uint256"
        },
        {
          "internalType": "address",
          "name": "_borrowToken",
          "type": "address"
        },
        {
          "internalType": "address",
          "name": "_collateralToken",
          "type": "address"
        },
        {
          "internalType": "uint256",
          "name": "_collateralRatio",
          "type": "uint256"
        },
        {
          "internalType": "uint256",
          "name": "_volatilityThreshold",
          "type": "uint256"
        },
        {
          "internalType": "uint256",
          "name": "_repaymentInterval",
          "type": "uint256"
        },
        {
          "internalType": "uint256",
          "name": "_noOfRepaymentIntervals",
          "type": "uint256"
        },
        {
          "internalType": "address",
          "name": "_poolSavingsStrategy",
          "type": "address"
        },
        {
          "internalType": "uint256",
          "name": "_collateralAmount",
          "type": "uint256"
        },
        {
          "internalType": "bool",
          "name": "_transferFromSavingsAccount",
          "type": "bool"
        },
        {
          "internalType": "bytes32",
          "name": "_salt",
          "type": "bytes32"
        },
        {
          "internalType": "address",
          "name": "_verifier",
          "type": "address"
        },
        {
          "internalType": "address",
          "name": "_lenderVerifier",
          "type": "address"
        }
      ],
      "name": "createPool",
      "outputs": [],
      "stateMutability": "payable",
      "type": "function"
    },
    {
      "inputs": [],
      "name": "extension",
      "outputs": [
        {
          "internalType": "address",
          "name": "",
          "type": "address"
        }
      ],
      "stateMutability": "view",
      "type": "function"
    },
    {
      "inputs": [],
      "name": "getProtocolFeeData",
      "outputs": [
        {
          "internalType": "uint256",
          "name": "",
          "type": "uint256"
        },
        {
          "internalType": "address",
          "name": "",
          "type": "address"
        }
      ],
      "stateMutability": "view",
      "type": "function"
    },
    {
      "inputs": [],
      "name": "gracePeriodPenaltyFraction",
      "outputs": [
        {
          "internalType": "uint256",
          "name": "",
          "type": "uint256"
        }
      ],
      "stateMutability": "view",
      "type": "function"
    },
    {
      "inputs": [
        {
          "internalType": "address",
          "name": "_admin",
          "type": "address"
        },
        {
          "internalType": "uint256",
          "name": "_collectionPeriod",
          "type": "uint256"
        },
        {
          "internalType": "uint256",
          "name": "_matchCollateralRatioInterval",
          "type": "uint256"
        },
        {
          "internalType": "uint256",
          "name": "_marginCallDuration",
          "type": "uint256"
        },
        {
          "internalType": "uint256",
          "name": "_gracePeriodPenaltyFraction",
          "type": "uint256"
        },
        {
          "internalType": "bytes4",
          "name": "_poolInitFuncSelector",
          "type": "bytes4"
        },
        {
          "internalType": "bytes4",
          "name": "_poolTokenInitFuncSelector",
          "type": "bytes4"
        },
        {
          "internalType": "uint256",
          "name": "_liquidatorRewardFraction",
          "type": "uint256"
        },
        {
          "internalType": "uint256",
          "name": "_poolCancelPenaltyFraction",
          "type": "uint256"
        },
        {
          "internalType": "uint256",
          "name": "_minBorrowFraction",
          "type": "uint256"
        },
        {
          "internalType": "uint256",
          "name": "_protocolFeeFraction",
          "type": "uint256"
        },
        {
          "internalType": "address",
          "name": "_protocolFeeCollector",
          "type": "address"
        }
      ],
      "name": "initialize",
      "outputs": [],
      "stateMutability": "nonpayable",
      "type": "function"
    },
    {
      "inputs": [],
      "name": "liquidatorRewardFraction",
      "outputs": [
        {
          "internalType": "uint256",
          "name": "",
          "type": "uint256"
        }
      ],
      "stateMutability": "view",
      "type": "function"
    },
    {
      "inputs": [],
      "name": "marginCallDuration",
      "outputs": [
        {
          "internalType": "uint256",
          "name": "",
          "type": "uint256"
        }
      ],
      "stateMutability": "view",
      "type": "function"
    },
    {
      "inputs": [],
      "name": "matchCollateralRatioInterval",
      "outputs": [
        {
          "internalType": "uint256",
          "name": "",
          "type": "uint256"
        }
      ],
      "stateMutability": "view",
      "type": "function"
    },
    {
      "inputs": [],
      "name": "minBorrowFraction",
      "outputs": [
        {
          "internalType": "uint256",
          "name": "",
          "type": "uint256"
        }
      ],
      "stateMutability": "view",
      "type": "function"
    },
    {
      "inputs": [],
      "name": "owner",
      "outputs": [
        {
          "internalType": "address",
          "name": "",
          "type": "address"
        }
      ],
      "stateMutability": "view",
      "type": "function"
    },
    {
      "inputs": [],
      "name": "poolCancelPenaltyFraction",
      "outputs": [
        {
          "internalType": "uint256",
          "name": "",
          "type": "uint256"
        }
      ],
      "stateMutability": "view",
      "type": "function"
    },
    {
      "inputs": [],
      "name": "poolImpl",
      "outputs": [
        {
          "internalType": "address",
          "name": "",
          "type": "address"
        }
      ],
      "stateMutability": "view",
      "type": "function"
    },
    {
      "inputs": [],
      "name": "poolInitFuncSelector",
      "outputs": [
        {
          "internalType": "bytes4",
          "name": "",
          "type": "bytes4"
        }
      ],
      "stateMutability": "view",
      "type": "function"
    },
    {
      "inputs": [
        {
          "internalType": "address",
          "name": "",
          "type": "address"
        }
      ],
      "name": "poolRegistry",
      "outputs": [
        {
          "internalType": "bool",
          "name": "",
          "type": "bool"
        }
      ],
      "stateMutability": "view",
      "type": "function"
    },
    {
      "inputs": [],
      "name": "poolTokenImpl",
      "outputs": [
        {
          "internalType": "address",
          "name": "",
          "type": "address"
        }
      ],
      "stateMutability": "view",
      "type": "function"
    },
    {
      "inputs": [],
      "name": "poolTokenInitFuncSelector",
      "outputs": [
        {
          "internalType": "bytes4",
          "name": "",
          "type": "bytes4"
        }
      ],
      "stateMutability": "view",
      "type": "function"
    },
    {
      "inputs": [],
      "name": "priceOracle",
      "outputs": [
        {
          "internalType": "address",
          "name": "",
          "type": "address"
        }
      ],
      "stateMutability": "view",
      "type": "function"
    },
    {
      "inputs": [],
      "name": "renounceOwnership",
      "outputs": [],
      "stateMutability": "nonpayable",
      "type": "function"
    },
    {
      "inputs": [],
      "name": "repaymentImpl",
      "outputs": [
        {
          "internalType": "address",
          "name": "",
          "type": "address"
        }
      ],
      "stateMutability": "view",
      "type": "function"
    },
    {
      "inputs": [],
      "name": "savingsAccount",
      "outputs": [
        {
          "internalType": "address",
          "name": "",
          "type": "address"
        }
      ],
      "stateMutability": "view",
      "type": "function"
    },
    {
      "inputs": [
        {
          "internalType": "address",
          "name": "_poolImpl",
          "type": "address"
        },
        {
          "internalType": "address",
          "name": "_repaymentImpl",
          "type": "address"
        },
        {
          "internalType": "address",
          "name": "_poolTokenImpl",
          "type": "address"
        },
        {
          "internalType": "address",
          "name": "_userRegistry",
          "type": "address"
        },
        {
          "internalType": "address",
          "name": "_strategyRegistry",
          "type": "address"
        },
        {
          "internalType": "address",
          "name": "_priceOracle",
          "type": "address"
        },
        {
          "internalType": "address",
          "name": "_savingsAccount",
          "type": "address"
        },
        {
          "internalType": "address",
          "name": "_extension",
          "type": "address"
        }
      ],
      "name": "setImplementations",
      "outputs": [],
      "stateMutability": "nonpayable",
      "type": "function"
    },
    {
      "inputs": [],
      "name": "strategyRegistry",
      "outputs": [
        {
          "internalType": "address",
          "name": "",
          "type": "address"
        }
      ],
      "stateMutability": "view",
      "type": "function"
    },
    {
      "inputs": [
        {
          "internalType": "address",
          "name": "newOwner",
          "type": "address"
        }
      ],
      "name": "transferOwnership",
      "outputs": [],
      "stateMutability": "nonpayable",
      "type": "function"
    },
    {
      "inputs": [
        {
          "internalType": "uint256",
          "name": "_min",
          "type": "uint256"
        },
        {
          "internalType": "uint256",
          "name": "_max",
          "type": "uint256"
        }
      ],
      "name": "updateBorrowRateLimit",
      "outputs": [],
      "stateMutability": "nonpayable",
      "type": "function"
    },
    {
      "inputs": [
        {
          "internalType": "uint256",
          "name": "_min",
          "type": "uint256"
        },
        {
          "internalType": "uint256",
          "name": "_max",
          "type": "uint256"
        }
      ],
      "name": "updateCollateralRatioLimit",
      "outputs": [],
      "stateMutability": "nonpayable",
      "type": "function"
    },
    {
      "inputs": [
        {
          "internalType": "uint256",
          "name": "_collectionPeriod",
          "type": "uint256"
        }
      ],
      "name": "updateCollectionPeriod",
      "outputs": [],
      "stateMutability": "nonpayable",
      "type": "function"
    },
    {
      "inputs": [
        {
          "internalType": "uint256",
          "name": "_gracePeriodPenaltyFraction",
          "type": "uint256"
        }
      ],
      "name": "updateGracePeriodPenaltyFraction",
      "outputs": [],
      "stateMutability": "nonpayable",
      "type": "function"
    },
    {
      "inputs": [
        {
          "internalType": "uint256",
          "name": "_liquidatorRewardFraction",
          "type": "uint256"
        }
      ],
      "name": "updateLiquidatorRewardFraction",
      "outputs": [],
      "stateMutability": "nonpayable",
      "type": "function"
    },
    {
      "inputs": [
        {
          "internalType": "uint256",
          "name": "_marginCallDuration",
          "type": "uint256"
        }
      ],
      "name": "updateMarginCallDuration",
      "outputs": [],
      "stateMutability": "nonpayable",
      "type": "function"
    },
    {
      "inputs": [
        {
          "internalType": "uint256",
          "name": "_matchCollateralRatioInterval",
          "type": "uint256"
        }
      ],
      "name": "updateMatchCollateralRatioInterval",
      "outputs": [],
      "stateMutability": "nonpayable",
      "type": "function"
    },
    {
      "inputs": [
        {
          "internalType": "uint256",
          "name": "_minBorrowFraction",
          "type": "uint256"
        }
      ],
      "name": "updateMinBorrowFraction",
      "outputs": [],
      "stateMutability": "nonpayable",
      "type": "function"
    },
    {
      "inputs": [
        {
          "internalType": "uint256",
          "name": "_min",
          "type": "uint256"
        },
        {
          "internalType": "uint256",
          "name": "_max",
          "type": "uint256"
        }
      ],
      "name": "updateNoOfRepaymentIntervalsLimit",
      "outputs": [],
      "stateMutability": "nonpayable",
      "type": "function"
    },
    {
      "inputs": [
        {
          "internalType": "uint256",
          "name": "_poolCancelPenaltyFraction",
          "type": "uint256"
        }
      ],
      "name": "updatePoolCancelPenaltyFraction",
      "outputs": [],
      "stateMutability": "nonpayable",
      "type": "function"
    },
    {
      "inputs": [
        {
          "internalType": "address",
          "name": "_poolLogic",
          "type": "address"
        }
      ],
      "name": "updatePoolLogic",
      "outputs": [],
      "stateMutability": "nonpayable",
      "type": "function"
    },
    {
      "inputs": [
        {
          "internalType": "uint256",
          "name": "_min",
          "type": "uint256"
        },
        {
          "internalType": "uint256",
          "name": "_max",
          "type": "uint256"
        }
      ],
      "name": "updatePoolSizeLimit",
      "outputs": [],
      "stateMutability": "nonpayable",
      "type": "function"
    },
    {
      "inputs": [
        {
          "internalType": "address",
          "name": "_poolTokenImpl",
          "type": "address"
        }
      ],
      "name": "updatePoolTokenImpl",
      "outputs": [],
      "stateMutability": "nonpayable",
      "type": "function"
    },
    {
      "inputs": [
        {
          "internalType": "bytes4",
          "name": "_functionId",
          "type": "bytes4"
        }
      ],
      "name": "updatePoolTokenInitFuncSelector",
      "outputs": [],
      "stateMutability": "nonpayable",
      "type": "function"
    },
    {
      "inputs": [
        {
          "internalType": "address",
          "name": "_priceOracle",
          "type": "address"
        }
      ],
      "name": "updatePriceoracle",
      "outputs": [],
      "stateMutability": "nonpayable",
      "type": "function"
    },
    {
      "inputs": [
        {
          "internalType": "address",
          "name": "_protocolFeeCollector",
          "type": "address"
        }
      ],
      "name": "updateProtocolFeeCollector",
      "outputs": [],
      "stateMutability": "nonpayable",
      "type": "function"
    },
    {
      "inputs": [
        {
          "internalType": "uint256",
          "name": "_protocolFee",
          "type": "uint256"
        }
      ],
      "name": "updateProtocolFeeFraction",
      "outputs": [],
      "stateMutability": "nonpayable",
      "type": "function"
    },
    {
      "inputs": [
        {
          "internalType": "address",
          "name": "_repaymentImpl",
          "type": "address"
        }
      ],
      "name": "updateRepaymentImpl",
      "outputs": [],
      "stateMutability": "nonpayable",
      "type": "function"
    },
    {
      "inputs": [
        {
          "internalType": "uint256",
          "name": "_min",
          "type": "uint256"
        },
        {
          "internalType": "uint256",
          "name": "_max",
          "type": "uint256"
        }
      ],
      "name": "updateRepaymentIntervalLimit",
      "outputs": [],
      "stateMutability": "nonpayable",
      "type": "function"
    },
    {
      "inputs": [
        {
          "internalType": "address",
          "name": "_savingsAccount",
          "type": "address"
        }
      ],
      "name": "updateSavingsAccount",
      "outputs": [],
      "stateMutability": "nonpayable",
      "type": "function"
    },
    {
      "inputs": [
        {
          "internalType": "address",
          "name": "_strategyRegistry",
          "type": "address"
        }
      ],
      "name": "updateStrategyRegistry",
      "outputs": [],
      "stateMutability": "nonpayable",
      "type": "function"
    },
    {
      "inputs": [
        {
          "internalType": "address",
          "name": "_borrowToken",
          "type": "address"
        },
        {
          "internalType": "bool",
          "name": "_isSupported",
          "type": "bool"
        }
      ],
      "name": "updateSupportedBorrowTokens",
      "outputs": [],
      "stateMutability": "nonpayable",
      "type": "function"
    },
    {
      "inputs": [
        {
          "internalType": "address",
          "name": "_collateralToken",
          "type": "address"
        },
        {
          "internalType": "bool",
          "name": "_isSupported",
          "type": "bool"
        }
      ],
      "name": "updateSupportedCollateralTokens",
      "outputs": [],
      "stateMutability": "nonpayable",
      "type": "function"
    },
    {
      "inputs": [
        {
          "internalType": "address",
          "name": "_userRegistry",
          "type": "address"
        }
      ],
      "name": "updateUserRegistry",
      "outputs": [],
      "stateMutability": "nonpayable",
      "type": "function"
    },
    {
      "inputs": [
        {
          "internalType": "address",
          "name": "_extension",
          "type": "address"
        }
      ],
      "name": "updatedExtension",
      "outputs": [],
      "stateMutability": "nonpayable",
      "type": "function"
    },
    {
      "inputs": [
        {
          "internalType": "bytes4",
          "name": "_functionId",
          "type": "bytes4"
        }
      ],
      "name": "updatepoolInitFuncSelector",
      "outputs": [],
      "stateMutability": "nonpayable",
      "type": "function"
    },
    {
      "inputs": [],
      "name": "userRegistry",
      "outputs": [
        {
          "internalType": "address",
          "name": "",
          "type": "address"
        }
      ],
      "stateMutability": "view",
      "type": "function"
    },
    {
      "inputs": [],
      "name": "votingPassRatio",
      "outputs": [
        {
          "internalType": "uint256",
          "name": "",
          "type": "uint256"
        }
      ],
      "stateMutability": "view",
      "type": "function"
    }
  ],
  "bytecode": "0x608060405234801561001057600080fd5b506144d0806100206000396000f3fe608060405260043610620003865760003560e01c80638da5cb5b11620001d5578063cf62591e116200010f578063e2613ffe11620000a3578063ecced6231162000079578063ecced6231462000cb2578063edf7ae211462000cca578063f2fde38b1462000d15578063f2ff14611462000d4c5762000386565b8063e2613ffe1462000c4b578063e35ddc071462000c82578063e63ab1e91462000c9a5762000386565b8063d5b837f811620000e5578063d5b837f81462000b24578063dcc314db1462000bb2578063de9de06e1462000be9578063e030a06d1462000c175762000386565b8063cf62591e1462000adc578063d080bf271462000af4578063d53913931462000b0c5762000386565b8063acca944f1162000187578063bf658a2e116200015d578063bf658a2e1462000a26578063c2bb7c8d1462000a5e578063cad111ab1462000a76578063ce2f9f4c1462000aae5762000386565b8063acca944f14620009a9578063b16c3f7314620009c1578063b5e5216714620009ef5762000386565b80638da5cb5b1462000876578063950bb6d3146200088e5780639732e24c14620009165780639b9842c1146200092e578063a3170fe51462000946578063aa76834d146200097b5762000386565b8063532cdea511620002c557806374113a2711620002595780637be4a7b5116200022f5780637be4a7b514620007965780637cf0aec814620007d55780637d3edfee1462000809578063800987ba14620008485762000386565b806374113a2714620007115780637908423b14620007295780637bad5207146200075d5762000386565b806363832d54116200029b57806363832d541462000673578063651faffa146200068b5780636cf14f9d14620006c2578063715018a614620006f95762000386565b8063532cdea514620005b4578063565b54ea14620006245780635c7460d6146200065b5762000386565b80632d5537b0116200033d5780633a02ab3c11620003135780633a02ab3c14620005165780634c1f2dc5146200052e5780634e73f74b146200056557806352cd2783146200057d5762000386565b80632d5537b014620004935780632e37d82614620004ab57806334c0af5414620004e25762000386565b80630971976e146200038b578063112dc9dc14620003b5578063171e108514620003e557806317c03f0714620004195780632630c12f146200044d57806329ae4a6f1462000465575b600080fd5b3480156200039857600080fd5b50620003a362000d7a565b60408051918252519081900360200190f35b348015620003c257600080fd5b50620003e360048036036020811015620003db57600080fd5b503562000d80565b005b348015620003f257600080fd5b50620003fd62000df6565b604080516001600160a01b039092168252519081900360200190f35b3480156200042657600080fd5b50620003e3600480360360408110156200043f57600080fd5b508035906020013562000e05565b3480156200045a57600080fd5b50620003fd62000ee2565b3480156200047257600080fd5b50620003e3600480360360208110156200048b57600080fd5b503562000ef1565b348015620004a057600080fd5b50620003fd62000f64565b348015620004b857600080fd5b50620003e360048036036020811015620004d157600080fd5b50356001600160a01b031662000f73565b348015620004ef57600080fd5b50620003e3600480360360408110156200050857600080fd5b508035906020013562000fe6565b3480156200052357600080fd5b50620003a3620010bd565b3480156200053b57600080fd5b50620003e3600480360360208110156200055457600080fd5b50356001600160a01b0316620010c3565b3480156200057257600080fd5b50620003a362001136565b3480156200058a57600080fd5b50620003e360048036036020811015620005a357600080fd5b50356001600160a01b03166200113c565b348015620005c157600080fd5b50620003e36004803603610100811015620005db57600080fd5b506001600160a01b038135811691602081013582169160408201358116916060810135821691608082013581169160a081013582169160c082013581169160e0013516620011af565b3480156200063157600080fd5b50620003e3600480360360208110156200064a57600080fd5b50356001600160a01b031662001279565b3480156200066857600080fd5b50620003fd620012ec565b3480156200068057600080fd5b50620003fd620012fb565b3480156200069857600080fd5b50620003e360048036036020811015620006b157600080fd5b50356001600160a01b031662001311565b348015620006cf57600080fd5b50620003e360048036036020811015620006e857600080fd5b50356001600160a01b031662001384565b3480156200070657600080fd5b50620003e3620013f7565b3480156200071e57600080fd5b50620003a3620014a9565b3480156200073657600080fd5b50620003e3600480360360408110156200074f57600080fd5b5080359060200135620014af565b3480156200076a57600080fd5b506200077562001585565b604080519283526001600160a01b0390911660208301528051918290030190f35b348015620007a357600080fd5b50620003e360048036036040811015620007bc57600080fd5b506001600160a01b038135169060200135151562001598565b348015620007e257600080fd5b50620003e360048036036040811015620007fb57600080fd5b508035906020013562001610565b3480156200081657600080fd5b50620003e3600480360360408110156200082f57600080fd5b506001600160a01b0381351690602001351515620016df565b3480156200085557600080fd5b50620003e3600480360360208110156200086e57600080fd5b503562001753565b3480156200088357600080fd5b50620003fd620017c6565b620003e360048036036101c0811015620008a757600080fd5b508035906020810135906001600160a01b036040820135811691606081013582169160808201359160a08101359160c08201359160e08101359161010082013581169161012081013591610140820135151591610160810135916101808201358116916101a0013516620017d7565b3480156200092357600080fd5b50620003fd62001d32565b3480156200093b57600080fd5b50620003a362001d41565b3480156200095357600080fd5b506200095e62001d47565b604080516001600160e01b03199092168252519081900360200190f35b3480156200098857600080fd5b50620003e360048036036020811015620009a157600080fd5b503562001d50565b348015620009b657600080fd5b50620003a362001dc3565b348015620009ce57600080fd5b50620003e360048036036020811015620009e757600080fd5b503562001dc9565b348015620009fc57600080fd5b50620003e36004803603602081101562000a1557600080fd5b50356001600160a01b031662001e3c565b34801562000a3357600080fd5b50620003e36004803603602081101562000a4c57600080fd5b50356001600160e01b03191662001eaf565b34801562000a6b57600080fd5b50620003a362001f22565b34801562000a8357600080fd5b50620003e36004803603602081101562000a9c57600080fd5b50356001600160e01b03191662001f28565b34801562000abb57600080fd5b50620003e36004803603602081101562000ad457600080fd5b503562001f9b565b34801562000ae957600080fd5b50620003a36200200e565b34801562000b0157600080fd5b50620003fd62002014565b34801562000b1957600080fd5b50620003a362002023565b34801562000b3157600080fd5b50620003e3600480360361018081101562000b4b57600080fd5b506001600160a01b0381358116916020810135916040820135916060810135916080820135916001600160e01b031960a082013581169260c08301359091169160e08101359161010082013591610120810135916101408201359161016001351662002047565b34801562000bbf57600080fd5b50620003e36004803603602081101562000bd857600080fd5b50356001600160a01b03166200218b565b34801562000bf657600080fd5b50620003e36004803603602081101562000c0f57600080fd5b5035620021fe565b34801562000c2457600080fd5b50620003e36004803603604081101562000c3d57600080fd5b508035906020013562002271565b34801562000c5857600080fd5b50620003e36004803603602081101562000c7157600080fd5b50356001600160a01b031662002342565b34801562000c8f57600080fd5b506200095e620023b5565b34801562000ca757600080fd5b50620003a3620023c6565b34801562000cbf57600080fd5b50620003fd620023ea565b34801562000cd757600080fd5b5062000d016004803603602081101562000cf057600080fd5b50356001600160a01b0316620023f9565b604080519115158252519081900360200190f35b34801562000d2257600080fd5b50620003e36004803603602081101562000d3b57600080fd5b50356001600160a01b03166200240e565b34801562000d5957600080fd5b50620003e36004803603602081101562000d7257600080fd5b503562002519565b606d5481565b62000d8a6200258c565b6001600160a01b031662000d9d620017c6565b6001600160a01b03161462000de8576040805162461bcd60e51b815260206004820181905260248201526000805160206200434d833981519152604482015290519081900360640190fd5b62000df38162002590565b50565b606a546001600160a01b031681565b62000e0f6200258c565b6001600160a01b031662000e22620017c6565b6001600160a01b03161462000e6d576040805162461bcd60e51b815260206004820181905260248201526000805160206200434d833981519152604482015290519081900360640190fd5b60408051808201825283815260209081018390526082849055608383905581519081018490528082018390526060808252601690820152754e6f4f6652657061796d656e74496e74657276616c7360501b608082015290516000805160206200432d8339815191529181900360a00190a15050565b606b546001600160a01b031681565b62000efb6200258c565b6001600160a01b031662000f0e620017c6565b6001600160a01b03161462000f59576040805162461bcd60e51b815260206004820181905260248201526000805160206200434d833981519152604482015290519081900360640190fd5b62000df381620025cb565b6069546001600160a01b031681565b62000f7d6200258c565b6001600160a01b031662000f90620017c6565b6001600160a01b03161462000fdb576040805162461bcd60e51b815260206004820181905260248201526000805160206200434d833981519152604482015290519081900360640190fd5b62000df38162002606565b62000ff06200258c565b6001600160a01b031662001003620017c6565b6001600160a01b0316146200104e576040805162461bcd60e51b815260206004820181905260248201526000805160206200434d833981519152604482015290519081900360640190fd5b604080518082018252838152602090810183905260808481556081849055825191820185905281830184905260608083526011908301527014995c185e5b595b9d125b9d195c9d985b607a1b9082015290516000805160206200432d8339815191529181900360a00190a15050565b606e5481565b620010cd6200258c565b6001600160a01b0316620010e0620017c6565b6001600160a01b0316146200112b576040805162461bcd60e51b815260206004820181905260248201526000805160206200434d833981519152604482015290519081900360640190fd5b62000df3816200265a565b60715481565b620011466200258c565b6001600160a01b031662001159620017c6565b6001600160a01b031614620011a4576040805162461bcd60e51b815260206004820181905260248201526000805160206200434d833981519152604482015290519081900360640190fd5b62000df381620026ae565b620011b96200258c565b6001600160a01b0316620011cc620017c6565b6001600160a01b03161462001217576040805162461bcd60e51b815260206004820181905260248201526000805160206200434d833981519152604482015290519081900360640190fd5b620012228862002702565b6200122d8762002767565b6200123886620027bb565b62001243826200280f565b6200124e8162002863565b620012598562002606565b62001264846200265a565b6200126f83620026ae565b5050505050505050565b620012836200258c565b6001600160a01b031662001296620017c6565b6001600160a01b031614620012e1576040805162461bcd60e51b815260206004820181905260248201526000805160206200434d833981519152604482015290519081900360640190fd5b62000df381620028b7565b6067546001600160a01b031681565b606554600160401b90046001600160a01b031681565b6200131b6200258c565b6001600160a01b03166200132e620017c6565b6001600160a01b03161462001379576040805162461bcd60e51b815260206004820181905260248201526000805160206200434d833981519152604482015290519081900360640190fd5b62000df38162002767565b6200138e6200258c565b6001600160a01b0316620013a1620017c6565b6001600160a01b031614620013ec576040805162461bcd60e51b815260206004820181905260248201526000805160206200434d833981519152604482015290519081900360640190fd5b62000df3816200280f565b620014016200258c565b6001600160a01b031662001414620017c6565b6001600160a01b0316146200145f576040805162461bcd60e51b815260206004820181905260248201526000805160206200434d833981519152604482015290519081900360640190fd5b6033546040516000916001600160a01b0316907f8be0079c531659141344cd1fd0a4f28419497f9722a3daafe3b4186f6b6457e0908390a3603380546001600160a01b0319169055565b60735481565b620014b96200258c565b6001600160a01b0316620014cc620017c6565b6001600160a01b03161462001517576040805162461bcd60e51b815260206004820181905260248201526000805160206200434d833981519152604482015290519081900360640190fd5b6040805180820182528381526020908101839052607c849055607d83905581519081018490528082018390526060808252600f908201526e436f6c6c61746572616c526174696f60881b608082015290516000805160206200432d8339815191529181900360a00190a15050565b6075546076546001600160a01b03169091565b620015a26200258c565b6001600160a01b0316620015b5620017c6565b6001600160a01b03161462001600576040805162461bcd60e51b815260206004820181905260248201526000805160206200434d833981519152604482015290519081900360640190fd5b6200160c82826200290b565b5050565b6200161a6200258c565b6001600160a01b03166200162d620017c6565b6001600160a01b03161462001678576040805162461bcd60e51b815260206004820181905260248201526000805160206200434d833981519152604482015290519081900360640190fd5b6040805180820182528381526020908101839052607a849055607b8390558151908101849052808201839052606080825260089082015267506f6f6c53697a6560c01b608082015290516000805160206200432d8339815191529181900360a00190a15050565b620016e96200258c565b6001600160a01b0316620016fc620017c6565b6001600160a01b03161462001747576040805162461bcd60e51b815260206004820181905260248201526000805160206200434d833981519152604482015290519081900360640190fd5b6200160c82826200296f565b6200175d6200258c565b6001600160a01b031662001770620017c6565b6001600160a01b031614620017bb576040805162461bcd60e51b815260206004820181905260248201526000805160206200434d833981519152604482015290519081900360640190fd5b62000df381620029d3565b6000620017d262002a0e565b905090565b60675460408051625a87b960e31b81523360048201526001600160a01b0380861660248301529151859392909216916302d43dc891604480820192602092909190829003018186803b1580156200182d57600080fd5b505afa15801562001842573d6000803e3d6000fd5b505050506040513d60208110156200185957600080fd5b5051620018985760405162461bcd60e51b8152600401808060200182810382526041815260200180620041ee6041913960600191505060405180910390fd5b6001600160a01b038c16620018e757853414620018e75760405162461bcd60e51b8152600401808060200182810382526052815260200180620043de6052913960600191505060405180910390fd5b8a8a1115620019285760405162461bcd60e51b8152600401808060200182810382526031815260200180620042d26031913960400191505060405180910390fd5b6001600160a01b038d1660009081526077602052604090205460ff16620019815760405162461bcd60e51b8152600401808060200182810382526033815260200180620043ab6033913960400191505060405180910390fd5b6001600160a01b038c1660009081526078602052604090205460ff16620019da5760405162461bcd60e51b8152600401808060200182810382526037815260200180620044646037913960400191505060405180910390fd5b606b60009054906101000a90046001600160a01b03166001600160a01b031663633defbd8d8f6040518363ffffffff1660e01b815260040180836001600160a01b03168152602001826001600160a01b031681526020019250505060206040518083038186803b15801562001a4e57600080fd5b505afa15801562001a63573d6000803e3d6000fd5b505050506040513d602081101562001a7a57600080fd5b505162001ab95760405162461bcd60e51b815260040180806020018281038252603f815260200180620041af603f913960400191505060405180910390fd5b6068546040805163038defd760e01b81526001600160a01b038a811660048301529151919092169163038defd7916024808301926020929190829003018186803b15801562001b0757600080fd5b505afa15801562001b1c573d6000803e3d6000fd5b505050506040513d602081101562001b3357600080fd5b505162001b725760405162461bcd60e51b815260040180806020018281038252602a81526020018062004303602a913960400191505060405180910390fd5b62001b898f607a60000154607a6001015462002a1d565b62001bc65760405162461bcd60e51b8152600401808060200182810382526034815260200180620044306034913960400191505060405180910390fd5b607c54607d5462001bd9918d9162002a1d565b62001c165760405162461bcd60e51b815260040180806020018281038252603c8152602001806200422f603c913960400191505060405180910390fd5b62001c2d8e607e60000154607e6001015462002a1d565b62001c6a5760405162461bcd60e51b8152600401808060200182810382526037815260200180620041786037913960400191505060405180910390fd5b60825460835462001c7d918a9162002a1d565b62001cba5760405162461bcd60e51b8152600401808060200182810382526039815260200180620042996039913960400191505060405180910390fd5b60805460815462001ccd918b9162002a1d565b62001d0a5760405162461bcd60e51b815260040180806020018281038252603e8152602001806200436d603e913960400191505060405180910390fd5b62001d218f8f8f8f8f8f8f8f8f8f8f8f8e62002a7c565b505050505050505050505050505050565b6066546001600160a01b031681565b606f5481565b60655460e01b81565b62001d5a6200258c565b6001600160a01b031662001d6d620017c6565b6001600160a01b03161462001db8576040805162461bcd60e51b815260206004820181905260248201526000805160206200434d833981519152604482015290519081900360640190fd5b62000df38162002ede565b60725481565b62001dd36200258c565b6001600160a01b031662001de6620017c6565b6001600160a01b03161462001e31576040805162461bcd60e51b815260206004820181905260248201526000805160206200434d833981519152604482015290519081900360640190fd5b62000df38162002f19565b62001e466200258c565b6001600160a01b031662001e59620017c6565b6001600160a01b03161462001ea4576040805162461bcd60e51b815260206004820181905260248201526000805160206200434d833981519152604482015290519081900360640190fd5b62000df381620027bb565b62001eb96200258c565b6001600160a01b031662001ecc620017c6565b6001600160a01b03161462001f17576040805162461bcd60e51b815260206004820181905260248201526000805160206200434d833981519152604482015290519081900360640190fd5b62000df38162002f54565b60705481565b62001f326200258c565b6001600160a01b031662001f45620017c6565b6001600160a01b03161462001f90576040805162461bcd60e51b815260206004820181905260248201526000805160206200434d833981519152604482015290519081900360640190fd5b62000df38162002fa8565b62001fa56200258c565b6001600160a01b031662001fb8620017c6565b6001600160a01b03161462002003576040805162461bcd60e51b815260206004820181905260248201526000805160206200434d833981519152604482015290519081900360640190fd5b62000df38162003007565b60745481565b6068546001600160a01b031681565b7f9f2df0fed2c77648de5860a4cc508cd0818c85b8b8a1ab4ceeef8d981c8956a681565b600054610100900460ff16806200206357506200206362003042565b8062002072575060005460ff16155b620020af5760405162461bcd60e51b815260040180806020018281038252602e8152602001806200426b602e913960400191505060405180910390fd5b600054610100900460ff16158015620020db576000805460ff1961ff0019909116610100171660011790555b620020e562003055565b620020f08d6200240e565b620020fb8c620025cb565b620021068b620029d3565b620021118a62003007565b6200211c8962002ede565b620021278862002f54565b620021328762002fa8565b6200213d8662002590565b620021488562003112565b620021538462002f19565b6200215e836200314d565b6200216982620028b7565b80156200217c576000805461ff00191690555b50505050505050505050505050565b620021956200258c565b6001600160a01b0316620021a8620017c6565b6001600160a01b031614620021f3576040805162461bcd60e51b815260206004820181905260248201526000805160206200434d833981519152604482015290519081900360640190fd5b62000df38162002702565b620022086200258c565b6001600160a01b03166200221b620017c6565b6001600160a01b03161462002266576040805162461bcd60e51b815260206004820181905260248201526000805160206200434d833981519152604482015290519081900360640190fd5b62000df3816200314d565b6200227b6200258c565b6001600160a01b03166200228e620017c6565b6001600160a01b031614620022d9576040805162461bcd60e51b815260206004820181905260248201526000805160206200434d833981519152604482015290519081900360640190fd5b6040805180820182528381526020908101839052607e849055607f83905581519081018490528082018390526060808252600a9082015269426f72726f775261746560b01b608082015290516000805160206200432d8339815191529181900360a00190a15050565b6200234c6200258c565b6001600160a01b03166200235f620017c6565b6001600160a01b031614620023aa576040805162461bcd60e51b815260206004820181905260248201526000805160206200434d833981519152604482015290519081900360640190fd5b62000df38162002863565b606554640100000000900460e01b81565b7f65d7a28e3265b37a6474929f336521b332c1681b933f6cb9f3376673440d862a81565b606c546001600160a01b031681565b60796020526000908152604090205460ff1681565b620024186200258c565b6001600160a01b03166200242b620017c6565b6001600160a01b03161462002476576040805162461bcd60e51b815260206004820181905260248201526000805160206200434d833981519152604482015290519081900360640190fd5b6001600160a01b038116620024bd5760405162461bcd60e51b8152600401808060200182810382526026815260200180620041526026913960400191505060405180910390fd5b6033546040516001600160a01b038084169216907f8be0079c531659141344cd1fd0a4f28419497f9722a3daafe3b4186f6b6457e090600090a3603380546001600160a01b0319166001600160a01b0392909216919091179055565b620025236200258c565b6001600160a01b031662002536620017c6565b6001600160a01b03161462002581576040805162461bcd60e51b815260206004820181905260248201526000805160206200434d833981519152604482015290519081900360640190fd5b62000df38162003112565b3390565b60728190556040805182815290517ffc9f5adb3ea0a0ee669d6b5200334f3bb22968c6e7b2eedf0e5819182319c5229181900360200190a150565b606d8190556040805182815290517f51aa68fcf65b26bbc5a9db0b5933c71c642bc16e263e1d8c9b018a3b951a2cda9181900360200190a150565b606780546001600160a01b0383166001600160a01b0319909116811790915560408051918252517fed714fbe17e15258cc6c9677fcfc9b57807561d3c4ff5c776fd00508f9dc53b99181900360200190a150565b606880546001600160a01b0383166001600160a01b0319909116811790915560408051918252517f0ae0dc70cd51233fb6650002520dcd7be97d65702ded4fbd4fc90777326935889181900360200190a150565b606b80546001600160a01b0383166001600160a01b0319909116811790915560408051918252517fefe8ab924ca486283a79dc604baa67add51afb82af1db8ac386ebbba643cdffd9181900360200190a150565b606580546001600160a01b038316600160401b810268010000000000000000600160e01b03199092169190911790915560408051918252517f8ee0ac431aa1f635687a8e5d2d1c00dc66d43e9d5d9f587748a563030cbdfc019181900360200190a150565b606a80546001600160a01b0383166001600160a01b0319909116811790915560408051918252517fc5d97bee24802645337b82f06929eb7187d3e96d3abfde102b4b5d316c1b98139181900360200190a150565b606680546001600160a01b0383166001600160a01b0319909116811790915560408051918252517f52ffa3b7d02a00f0464ba1f6c4c80ab69cb0271ae2f267cef0385c68aebc5dd09181900360200190a150565b606c80546001600160a01b0383166001600160a01b0319909116811790915560408051918252517f5e8a3d56d9512a62f643367551a65727148c2516dce6b54956df80926dd2536c9181900360200190a150565b606980546001600160a01b0383166001600160a01b0319909116811790915560408051918252517f48951af222000a326b404ddb507e4909d14517d79d2a5f9eb4e220c5c8f56eb79181900360200190a150565b607680546001600160a01b0383166001600160a01b0319909116811790915560408051918252517f33837f672315b6cffcf11894714abfdec631a913c18d7738fcaf40c444376fb69181900360200190a150565b6001600160a01b038216600081815260776020908152604091829020805460ff191685151590811790915582519384529083015280517fa6c7f9eef436525b9c658fcc90c25e3f399534d7f6654a4204f89690117ec26e9281900390910190a15050565b6001600160a01b038216600081815260786020908152604091829020805460ff191685151590811790915582519384529083015280517fa8465fce7714e145603abc61f76c96665912ca5d2f9b7dd67f27349d83294d629281900390910190a15050565b606e8190556040805182815290517fd69e359b3075417225bd0005493180e032a9745f5228e51204275897e9d3135e9181900360200190a150565b6033546001600160a01b031690565b6000821580159062002a2e57508115155b1562002a4d5782841015801562002a455750818411155b905062002a75565b821562002a5f57508183101562002a75565b811562002a7157508083111562002a75565b5060015b9392505050565b606062002a938e8e8e8e8e8e8e8e8e8e8e62003188565b60408051602080820187905233606090811b838501528351603481850301815260548401948590528051920191909120939450919062002ad690607401620034bf565b601f1982820381018352601f9091011660408181526065546001600160a01b03600160401b9091041660208381018281526001938501849052606080860190815289516080870152895193958a949293919260a09091019185019080838360005b8381101562002b5157818101518382015260200162002b37565b50505050905090810190601f16801562002b7f5780820380516001836020036101000a031916815260200191505b509450505050506040516020818303038152906040526040516020018083805190602001908083835b6020831062002bc95780518252601f19909201916020918201910162002ba8565b51815160209384036101000a600019018019909216911617905285519190930192850191508083835b6020831062002c135780518252601f19909201916020918201910162002bf2565b6001836020036101000a0380198251168184511680821785525050505050509050019250505060405160208183030381529060405290506000806001600160a01b03168e6001600160a01b03161462002c6e57600062002c70565b875b9050600062002c818285856200324d565b606554604080516001600160a01b03848116606483015260606024830152600b60848301526a506f6f6c20546f6b656e7360a81b60a483015260a06044830152600460c48301526313d0941560e21b60e48084019190915283518084039091018152610104909201835260208201805164010000000090950460e01b6001600160e01b0319166001600160e01b039095169490941790935260665491519394509260009291909116908290849062002d3990620034bf565b80846001600160a01b03168152602001836001600160a01b0316815260200180602001828103825283818151815260200191508051906020019080838360005b8381101562002d9357818101518382015260200162002d79565b50505050905090810190601f16801562002dc15780820380516001836020036101000a031916815260200191505b50945050505050604051809103906000f08015801562002de5573d6000803e3d6000fd5b509050826001600160a01b03166383366c19828a6040518363ffffffff1660e01b815260040180836001600160a01b03168152602001826001600160a01b0316815260200192505050600060405180830381600087803b15801562002e4957600080fd5b505af115801562002e5e573d6000803e3d6000fd5b5050506001600160a01b03808516600081815260796020908152604091829020805460ff19166001179055815192835233908301529184168183015290517f9c5d829b9b23efc461f9aeef91979ec04bb903feb3bee4f26d22114abfc7335b92509081900360600190a15050505050505050505050505050505050505050565b60718190556040805182815290517f949071e044e4732649303ce3f5f4ccb54a8840a73b510ae45d5cd9b81e930d889181900360200190a150565b60708190556040805182815290517fab19dd83cf2702c5ea79dac2821419054aadccdd02bc909d34abca761dbcf46f9181900360200190a150565b6065805463ffffffff191660e083901c179055604080516001600160e01b03198316815290517fbeee152d2a9de9377f4b5c9385c813ffac47b3bac8f9fc5057902b1f032ea413916020908290030190a150565b6065805467ffffffff00000000191664010000000060e084901c02179055604080516001600160e01b03198316815290517f876c0a03ffe4ebcb472a9a7cad4b9351e28c8e5ab21fd428c2c2344bf6620a5e916020908290030190a150565b606f8190556040805182815290517f1e85e6efe46a52b040a7311c9f1e10e4fcda6cae6b435437cb19b633e2e655449181900360200190a150565b60006200304f306200330e565b15905090565b600054610100900460ff16806200307157506200307162003042565b8062003080575060005460ff16155b620030bd5760405162461bcd60e51b815260040180806020018281038252602e8152602001806200426b602e913960400191505060405180910390fd5b600054610100900460ff16158015620030e9576000805460ff1961ff0019909116610100171660011790555b620030f362003314565b620030fd620033bc565b801562000df3576000805461ff001916905550565b60748190556040805182815290517f6d8c6800ef325e6cae74a7b1dbd75bd3356983c08c8425b7177866c51ad3e5859181900360200190a150565b60758190556040805182815290517fcfd641dab5b2592643d4b878bf2b771142aff4595263753dc7611f947749999d9181900360200190a150565b606554606e54606d5460408051602481019f909f5260448f019d909d523360648f01526001600160a01b039b8c1660848f0152998b1660a48e015260c48d019890985260e48c01969096526101048b01949094526101248a01929092529095166101448801526101648701949094529215156101848601526101a48501526101c480850191909152825180850390910181526101e490930190915260208201805160e09290921b6001600160e01b0319166001600160e01b0390921691909117905290565b6000815160001415620032a7576040805162461bcd60e51b815260206004820181905260248201527f437265617465323a2062797465636f6465206c656e677468206973207a65726f604482015290519081900360640190fd5b8282516020840186f590506001600160a01b03811662002a75576040805162461bcd60e51b815260206004820152601960248201527f437265617465323a204661696c6564206f6e206465706c6f7900000000000000604482015290519081900360640190fd5b3b151590565b600054610100900460ff16806200333057506200333062003042565b806200333f575060005460ff16155b6200337c5760405162461bcd60e51b815260040180806020018281038252602e8152602001806200426b602e913960400191505060405180910390fd5b600054610100900460ff16158015620030fd576000805460ff1961ff001990911661010017166001179055801562000df3576000805461ff001916905550565b600054610100900460ff1680620033d85750620033d862003042565b80620033e7575060005460ff16155b620034245760405162461bcd60e51b815260040180806020018281038252602e8152602001806200426b602e913960400191505060405180910390fd5b600054610100900460ff1615801562003450576000805460ff1961ff0019909116610100171660011790555b60006200345c6200258c565b603380546001600160a01b0319166001600160a01b038316908117909155604051919250906000907f8be0079c531659141344cd1fd0a4f28419497f9722a3daafe3b4186f6b6457e0908290a350801562000df3576000805461ff001916905550565b610c8480620034ce8339019056fe608060405260405162000c8438038062000c84833981810160405260608110156200002957600080fd5b815160208301516040808501805191519395929483019291846401000000008211156200005557600080fd5b9083019060208201858111156200006b57600080fd5b82516401000000008111828201881017156200008657600080fd5b82525081516020918201929091019080838360005b83811015620000b55781810151838201526020016200009b565b50505050905090810190601f168015620000e35780820380516001836020036101000a031916815260200191505b5060405250849150839050828281620000fc826200013d565b8051156200011d576200011b8282620001b460201b620003841760201c565b505b50620001269050565b6200013182620001e3565b505050505050620003c5565b62000153816200020760201b620003b01760201c565b620001905760405162461bcd60e51b815260040180806020018281038252603681526020018062000c286036913960400191505060405180910390fd5b7f360894a13ba1a3210667c828492db98dca3e2076cc3735a920a3ca505d382bbc55565b6060620001dc838360405180606001604052806027815260200162000c01602791396200020d565b9392505050565b7fb53127684a568b3173ae13b9f8a6016e243e63b6e8ee1178d6a717850b5d610355565b3b151590565b60606200021a8462000207565b620002575760405162461bcd60e51b815260040180806020018281038252602681526020018062000c5e6026913960400191505060405180910390fd5b60006060856001600160a01b0316856040518082805190602001908083835b60208310620002975780518252601f19909201916020918201910162000276565b6001836020036101000a038019825116818451168082178552505050505050905001915050600060405180830381855af49150503d8060008114620002f9576040519150601f19603f3d011682016040523d82523d6000602084013e620002fe565b606091505b509092509050620003118282866200031b565b9695505050505050565b606083156200032c575081620001dc565b8251156200033d5782518084602001fd5b8160405162461bcd60e51b81526004018080602001828103825283818151815260200191508051906020019080838360005b83811015620003895781810151838201526020016200036f565b50505050905090810190601f168015620003b75780820380516001836020036101000a031916815260200191505b509250505060405180910390fd5b61082c80620003d56000396000f3fe60806040526004361061004e5760003560e01c80633659cfe6146100655780634f1ef286146100985780635c60da1b146101185780638f28397014610149578063f851a4401461017c5761005d565b3661005d5761005b610191565b005b61005b610191565b34801561007157600080fd5b5061005b6004803603602081101561008857600080fd5b50356001600160a01b03166101ab565b61005b600480360360408110156100ae57600080fd5b6001600160a01b0382351691908101906040810160208201356401000000008111156100d957600080fd5b8201836020820111156100eb57600080fd5b8035906020019184600183028401116401000000008311171561010d57600080fd5b5090925090506101e5565b34801561012457600080fd5b5061012d610262565b604080516001600160a01b039092168252519081900360200190f35b34801561015557600080fd5b5061005b6004803603602081101561016c57600080fd5b50356001600160a01b031661029f565b34801561018857600080fd5b5061012d610359565b6101996103b6565b6101a96101a4610416565b61043b565b565b6101b361045f565b6001600160a01b0316336001600160a01b031614156101da576101d581610484565b6101e2565b6101e2610191565b50565b6101ed61045f565b6001600160a01b0316336001600160a01b031614156102555761020f83610484565b61024f8383838080601f01602080910402602001604051908101604052809392919081815260200183838082843760009201919091525061038492505050565b5061025d565b61025d610191565b505050565b600061026c61045f565b6001600160a01b0316336001600160a01b031614156102945761028d610416565b905061029c565b61029c610191565b90565b6102a761045f565b6001600160a01b0316336001600160a01b031614156101da576001600160a01b0381166103055760405162461bcd60e51b815260040180806020018281038252603a8152602001806106f8603a913960400191505060405180910390fd5b7f7e644d79422f17c01e4894b5f4f588d331ebfa28653d42ae832dc59e38c9798f61032e61045f565b604080516001600160a01b03928316815291841660208301528051918290030190a16101d5816104c4565b600061036361045f565b6001600160a01b0316336001600160a01b031614156102945761028d61045f565b60606103a98383604051806060016040528060278152602001610732602791396104e8565b9392505050565b3b151590565b6103be61045f565b6001600160a01b0316336001600160a01b0316141561040e5760405162461bcd60e51b81526004018080602001828103825260428152602001806107b56042913960600191505060405180910390fd5b6101a96101a9565b7f360894a13ba1a3210667c828492db98dca3e2076cc3735a920a3ca505d382bbc5490565b3660008037600080366000845af43d6000803e80801561045a573d6000f35b3d6000fd5b7fb53127684a568b3173ae13b9f8a6016e243e63b6e8ee1178d6a717850b5d61035490565b61048d816105eb565b6040516001600160a01b038216907fbc7cd75a20ee27fd9adebab32041f755214dbc6bffa90cc0225b39da2e5c2d3b90600090a250565b7fb53127684a568b3173ae13b9f8a6016e243e63b6e8ee1178d6a717850b5d610355565b60606104f3846103b0565b61052e5760405162461bcd60e51b815260040180806020018281038252602681526020018061078f6026913960400191505060405180910390fd5b60006060856001600160a01b0316856040518082805190602001908083835b6020831061056c5780518252601f19909201916020918201910161054d565b6001836020036101000a038019825116818451168082178552505050505050905001915050600060405180830381855af49150503d80600081146105cc576040519150601f19603f3d011682016040523d82523d6000602084013e6105d1565b606091505b50915091506105e1828286610653565b9695505050505050565b6105f4816103b0565b61062f5760405162461bcd60e51b81526004018080602001828103825260368152602001806107596036913960400191505060405180910390fd5b7f360894a13ba1a3210667c828492db98dca3e2076cc3735a920a3ca505d382bbc55565b606083156106625750816103a9565b8251156106725782518084602001fd5b8160405162461bcd60e51b81526004018080602001828103825283818151815260200191508051906020019080838360005b838110156106bc5781810151838201526020016106a4565b50505050905090810190601f1680156106e95780820380516001836020036101000a031916815260200191505b509250505060405180910390fdfe5472616e73706172656e745570677261646561626c6550726f78793a206e65772061646d696e20697320746865207a65726f2061646472657373416464726573733a206c6f772d6c6576656c2064656c65676174652063616c6c206661696c65645570677261646561626c6550726f78793a206e657720696d706c656d656e746174696f6e206973206e6f74206120636f6e7472616374416464726573733a2064656c65676174652063616c6c20746f206e6f6e2d636f6e74726163745472616e73706172656e745570677261646561626c6550726f78793a2061646d696e2063616e6e6f742066616c6c6261636b20746f2070726f787920746172676574a2646970667358221220ad4cc489585b8c2bd332b46fba9cfbb85df9a6e1d894d59c61e2cdbc2e70d83464736f6c63430007000033416464726573733a206c6f772d6c6576656c2064656c65676174652063616c6c206661696c65645570677261646561626c6550726f78793a206e657720696d706c656d656e746174696f6e206973206e6f74206120636f6e7472616374416464726573733a2064656c65676174652063616c6c20746f206e6f6e2d636f6e74726163744f776e61626c653a206e6577206f776e657220697320746865207a65726f2061646472657373506f6f6c466163746f72793a3a637265617465506f6f6c202d20426f72726f772072617465206e6f742077697468696e206c696d697473506f6f6c466163746f72793a3a637265617465506f6f6c202d205072696365206665656420646f65736e277420737570706f727420746f6b656e2070616972506f6f6c466163746f72793a3a6f6e6c79426f72726f776572202d204f6e6c7920612076616c696420426f72726f7765722063616e2063726561746520506f6f6c506f6f6c466163746f72793a3a637265617465506f6f6c202d20436f6c6c61746572616c20526174696f206e6f742077697468696e206c696d697473496e697469616c697a61626c653a20636f6e747261637420697320616c726561647920696e697469616c697a6564506f6f6c466163746f72793a3a637265617465506f6f6c202d204c6f616e206475726174696f6e206e6f742077697468696e206c696d697473506f6f6c466163746f72793a637265617465506f6f6c202d20496e76616c696420636f6c6c61746572616c20726174696f506f6f6c466163746f72793a3a637265617465506f6f6c202d20496e76616c6964207374726174656779e9da20d631ef06f93c14c03acd9bc8f22141e6fce63b1066f76c903adb73ea404f776e61626c653a2063616c6c6572206973206e6f7420746865206f776e6572506f6f6c466163746f72793a3a637265617465506f6f6c202d2052657061796d656e7420696e74657276616c206e6f742077697468696e206c696d697473506f6f6c466163746f72793a3a637265617465506f6f6c202d20496e76616c696420626f72726f7720746f6b656e2074797065506f6f6c466163746f72793a3a637265617465506f6f6c202d2045746865722073656e6420697320646966666572656e742066726f6d20636f6c6c61746572616c20616d6f756e7420737065636966696564506f6f6c466163746f72793a3a637265617465506f6f6c202d20506f6f6c53697a65206e6f742077697468696e206c696d697473506f6f6c466163746f72793a3a637265617465506f6f6c202d20496e76616c696420636f6c6c61746572616c20746f6b656e2074797065a264697066735822122091cf9c42a6463c490ff26290d06222b53fa2a0693dcc9c795add9b3e29a0c3b564736f6c63430007000033",
  "linkReferences": {},
  "deployedLinkReferences": {}
}